{
  "address": "0x2A8fD25eD062Afd2703dAD6bd60d0D4D8a62D75F",
  "abi": [
    {
      "inputs": [],
      "stateMutability": "nonpayable",
      "type": "constructor"
    },
    {
      "anonymous": false,
      "inputs": [
        {
          "indexed": true,
          "internalType": "address",
          "name": "account",
          "type": "address"
        },
        {
          "indexed": true,
          "internalType": "address",
          "name": "operator",
          "type": "address"
        },
        {
          "indexed": false,
          "internalType": "bool",
          "name": "approved",
          "type": "bool"
        }
      ],
      "name": "ApprovalForAll",
      "type": "event"
    },
    {
      "anonymous": false,
      "inputs": [
        {
          "indexed": true,
          "internalType": "address",
          "name": "previousOwner",
          "type": "address"
        },
        {
          "indexed": true,
          "internalType": "address",
          "name": "newOwner",
          "type": "address"
        }
      ],
      "name": "OwnershipTransferred",
      "type": "event"
    },
    {
      "anonymous": false,
      "inputs": [
        {
          "indexed": false,
          "internalType": "address",
          "name": "account",
          "type": "address"
        }
      ],
      "name": "Paused",
      "type": "event"
    },
    {
      "anonymous": false,
      "inputs": [
        {
          "indexed": true,
          "internalType": "address",
          "name": "operator",
          "type": "address"
        },
        {
          "indexed": true,
          "internalType": "address",
          "name": "from",
          "type": "address"
        },
        {
          "indexed": true,
          "internalType": "address",
          "name": "to",
          "type": "address"
        },
        {
          "indexed": false,
          "internalType": "uint256[]",
          "name": "ids",
          "type": "uint256[]"
        },
        {
          "indexed": false,
          "internalType": "uint256[]",
          "name": "values",
          "type": "uint256[]"
        }
      ],
      "name": "TransferBatch",
      "type": "event"
    },
    {
      "anonymous": false,
      "inputs": [
        {
          "indexed": true,
          "internalType": "address",
          "name": "operator",
          "type": "address"
        },
        {
          "indexed": true,
          "internalType": "address",
          "name": "from",
          "type": "address"
        },
        {
          "indexed": true,
          "internalType": "address",
          "name": "to",
          "type": "address"
        },
        {
          "indexed": false,
          "internalType": "uint256",
          "name": "id",
          "type": "uint256"
        },
        {
          "indexed": false,
          "internalType": "uint256",
          "name": "value",
          "type": "uint256"
        }
      ],
      "name": "TransferSingle",
      "type": "event"
    },
    {
      "anonymous": false,
      "inputs": [
        {
          "indexed": false,
          "internalType": "string",
          "name": "value",
          "type": "string"
        },
        {
          "indexed": true,
          "internalType": "uint256",
          "name": "id",
          "type": "uint256"
        }
      ],
      "name": "URI",
      "type": "event"
    },
    {
      "anonymous": false,
      "inputs": [
        {
          "indexed": false,
          "internalType": "address",
          "name": "account",
          "type": "address"
        }
      ],
      "name": "Unpaused",
      "type": "event"
    },
    {
      "inputs": [],
      "name": "CKNFT_PRICE",
      "outputs": [
        {
          "internalType": "uint256",
          "name": "",
          "type": "uint256"
        }
      ],
      "stateMutability": "view",
      "type": "function"
    },
    {
      "inputs": [],
      "name": "MAX_MINT",
      "outputs": [
        {
          "internalType": "uint256",
          "name": "",
          "type": "uint256"
        }
      ],
      "stateMutability": "view",
      "type": "function"
    },
    {
      "inputs": [],
      "name": "MAX_TOKEN_ID_PLUS_ONE",
      "outputs": [
        {
          "internalType": "uint256",
          "name": "",
          "type": "uint256"
        }
      ],
      "stateMutability": "view",
      "type": "function"
    },
    {
      "inputs": [],
      "name": "MAX_WL_MINT",
      "outputs": [
        {
          "internalType": "uint256",
          "name": "",
          "type": "uint256"
        }
      ],
      "stateMutability": "view",
      "type": "function"
    },
    {
      "inputs": [],
      "name": "WL_TIMER",
      "outputs": [
        {
          "internalType": "uint256",
          "name": "",
          "type": "uint256"
        }
      ],
      "stateMutability": "view",
      "type": "function"
    },
    {
      "inputs": [
        {
          "internalType": "address",
          "name": "account",
          "type": "address"
        },
        {
          "internalType": "uint256",
          "name": "id",
          "type": "uint256"
        }
      ],
      "name": "balanceOf",
      "outputs": [
        {
          "internalType": "uint256",
          "name": "",
          "type": "uint256"
        }
      ],
      "stateMutability": "view",
      "type": "function"
    },
    {
      "inputs": [
        {
          "internalType": "address[]",
          "name": "accounts",
          "type": "address[]"
        },
        {
          "internalType": "uint256[]",
          "name": "ids",
          "type": "uint256[]"
        }
      ],
      "name": "balanceOfBatch",
      "outputs": [
        {
          "internalType": "uint256[]",
          "name": "",
          "type": "uint256[]"
        }
      ],
      "stateMutability": "view",
      "type": "function"
    },
    {
      "inputs": [],
      "name": "contractURI",
      "outputs": [
        {
          "internalType": "string",
          "name": "",
          "type": "string"
        }
      ],
      "stateMutability": "view",
      "type": "function"
    },
    {
      "inputs": [],
      "name": "contractUri",
      "outputs": [
        {
          "internalType": "string",
          "name": "",
          "type": "string"
        }
      ],
      "stateMutability": "view",
      "type": "function"
    },
    {
      "inputs": [
        {
          "internalType": "address",
          "name": "account",
          "type": "address"
        },
        {
          "internalType": "address",
          "name": "operator",
          "type": "address"
        }
      ],
      "name": "isApprovedForAll",
      "outputs": [
        {
          "internalType": "bool",
          "name": "",
          "type": "bool"
        }
      ],
      "stateMutability": "view",
      "type": "function"
    },
    {
      "inputs": [],
      "name": "isWhiteListActive",
      "outputs": [
        {
          "internalType": "bool",
          "name": "",
          "type": "bool"
        }
      ],
      "stateMutability": "view",
      "type": "function"
    },
    {
      "inputs": [
        {
          "internalType": "uint256",
          "name": "_id",
          "type": "uint256"
        },
        {
          "internalType": "uint256",
          "name": "_amount",
          "type": "uint256"
        }
      ],
      "name": "mint",
      "outputs": [],
      "stateMutability": "payable",
      "type": "function"
    },
    {
      "inputs": [
        {
          "internalType": "uint256[]",
          "name": "_ids",
          "type": "uint256[]"
        },
        {
          "internalType": "uint256[]",
          "name": "_amounts",
          "type": "uint256[]"
        }
      ],
      "name": "mintBatch",
      "outputs": [],
      "stateMutability": "payable",
      "type": "function"
    },
    {
      "inputs": [],
      "name": "minted",
      "outputs": [
        {
          "internalType": "uint16",
          "name": "",
          "type": "uint16"
        }
      ],
      "stateMutability": "view",
      "type": "function"
    },
    {
      "inputs": [],
      "name": "owner",
      "outputs": [
        {
          "internalType": "address",
          "name": "",
          "type": "address"
        }
      ],
      "stateMutability": "view",
      "type": "function"
    },
    {
      "inputs": [
        {
          "internalType": "address",
          "name": "_to",
          "type": "address"
        },
        {
          "internalType": "uint256",
          "name": "_id",
          "type": "uint256"
        },
        {
          "internalType": "uint256",
          "name": "_amount",
          "type": "uint256"
        }
      ],
      "name": "ownerMint",
      "outputs": [],
      "stateMutability": "nonpayable",
      "type": "function"
    },
    {
      "inputs": [
        {
          "internalType": "uint256[]",
          "name": "_ids",
          "type": "uint256[]"
        },
        {
          "internalType": "uint256[]",
          "name": "_amounts",
          "type": "uint256[]"
        }
      ],
      "name": "ownerMintBatch",
      "outputs": [],
      "stateMutability": "nonpayable",
      "type": "function"
    },
    {
      "inputs": [],
      "name": "paused",
      "outputs": [
        {
          "internalType": "bool",
          "name": "",
          "type": "bool"
        }
      ],
      "stateMutability": "view",
      "type": "function"
    },
    {
      "inputs": [],
      "name": "renounceOwnership",
      "outputs": [],
      "stateMutability": "nonpayable",
      "type": "function"
    },
    {
      "inputs": [
        {
          "internalType": "address",
          "name": "from",
          "type": "address"
        },
        {
          "internalType": "address",
          "name": "to",
          "type": "address"
        },
        {
          "internalType": "uint256[]",
          "name": "ids",
          "type": "uint256[]"
        },
        {
          "internalType": "uint256[]",
          "name": "amounts",
          "type": "uint256[]"
        },
        {
          "internalType": "bytes",
          "name": "data",
          "type": "bytes"
        }
      ],
      "name": "safeBatchTransferFrom",
      "outputs": [],
      "stateMutability": "nonpayable",
      "type": "function"
    },
    {
      "inputs": [
        {
          "internalType": "address",
          "name": "from",
          "type": "address"
        },
        {
          "internalType": "address",
          "name": "to",
          "type": "address"
        },
        {
          "internalType": "uint256",
          "name": "id",
          "type": "uint256"
        },
        {
          "internalType": "uint256",
          "name": "amount",
          "type": "uint256"
        },
        {
          "internalType": "bytes",
          "name": "data",
          "type": "bytes"
        }
      ],
      "name": "safeTransferFrom",
      "outputs": [],
      "stateMutability": "nonpayable",
      "type": "function"
    },
    {
      "inputs": [
        {
          "internalType": "address",
          "name": "operator",
          "type": "address"
        },
        {
          "internalType": "bool",
          "name": "approved",
          "type": "bool"
        }
      ],
      "name": "setApprovalForAll",
      "outputs": [],
      "stateMutability": "nonpayable",
      "type": "function"
    },
    {
      "inputs": [
        {
          "internalType": "string",
          "name": "_newURI",
          "type": "string"
        }
      ],
      "name": "setContractURI",
      "outputs": [],
      "stateMutability": "nonpayable",
      "type": "function"
    },
    {
      "inputs": [
        {
          "internalType": "uint256",
          "name": "_max",
          "type": "uint256"
        }
      ],
      "name": "setMaxWLMint",
      "outputs": [],
      "stateMutability": "nonpayable",
      "type": "function"
    },
    {
      "inputs": [
        {
          "internalType": "bool",
          "name": "_paused",
          "type": "bool"
        }
      ],
      "name": "setPaused",
      "outputs": [],
      "stateMutability": "nonpayable",
      "type": "function"
    },
    {
      "inputs": [
        {
          "internalType": "bool",
          "name": "_wlEnd",
          "type": "bool"
        }
      ],
      "name": "setWhitelistActive",
      "outputs": [],
      "stateMutability": "nonpayable",
      "type": "function"
    },
    {
      "inputs": [
        {
          "internalType": "bytes4",
          "name": "interfaceId",
          "type": "bytes4"
        }
      ],
      "name": "supportsInterface",
      "outputs": [
        {
          "internalType": "bool",
          "name": "",
          "type": "bool"
        }
      ],
      "stateMutability": "view",
      "type": "function"
    },
    {
      "inputs": [
        {
          "internalType": "uint256",
          "name": "",
          "type": "uint256"
        }
      ],
      "name": "tokenIdToExistingSupply",
      "outputs": [
        {
          "internalType": "uint256",
          "name": "",
          "type": "uint256"
        }
      ],
      "stateMutability": "view",
      "type": "function"
    },
    {
      "inputs": [
        {
          "internalType": "uint256",
          "name": "",
          "type": "uint256"
        }
      ],
      "name": "tokenIdToMaxSupplyPlusOne",
      "outputs": [
        {
          "internalType": "uint256",
          "name": "",
          "type": "uint256"
        }
      ],
      "stateMutability": "view",
      "type": "function"
    },
    {
      "inputs": [
        {
          "internalType": "uint256",
          "name": "_id",
          "type": "uint256"
        }
      ],
      "name": "totalSupply",
      "outputs": [
        {
          "internalType": "uint256",
          "name": "",
          "type": "uint256"
        }
      ],
      "stateMutability": "view",
      "type": "function"
    },
    {
      "inputs": [
        {
          "internalType": "address",
          "name": "newOwner",
          "type": "address"
        }
      ],
      "name": "transferOwnership",
      "outputs": [],
      "stateMutability": "nonpayable",
      "type": "function"
    },
    {
      "inputs": [
        {
          "internalType": "uint256",
          "name": "",
          "type": "uint256"
        }
      ],
      "name": "uri",
      "outputs": [
        {
          "internalType": "string",
          "name": "",
          "type": "string"
        }
      ],
      "stateMutability": "view",
      "type": "function"
    },
    {
      "inputs": [
        {
          "internalType": "uint256",
          "name": "_id",
          "type": "uint256"
        },
        {
          "internalType": "uint256",
          "name": "_amount",
          "type": "uint256"
        }
      ],
      "name": "whiteListedMint",
      "outputs": [],
      "stateMutability": "payable",
      "type": "function"
    },
    {
      "inputs": [
        {
          "internalType": "address[]",
          "name": "_users",
          "type": "address[]"
        }
      ],
      "name": "whitelistUsers",
      "outputs": [],
      "stateMutability": "nonpayable",
      "type": "function"
    },
    {
      "inputs": [
        {
          "internalType": "address",
          "name": "",
          "type": "address"
        }
      ],
      "name": "whitelistedAddresses",
      "outputs": [
        {
          "internalType": "bool",
          "name": "",
          "type": "bool"
        }
      ],
      "stateMutability": "view",
      "type": "function"
    },
    {
      "inputs": [
        {
          "internalType": "address",
          "name": "",
          "type": "address"
        }
      ],
      "name": "whitelistedPermit",
      "outputs": [
        {
          "internalType": "uint256",
          "name": "",
          "type": "uint256"
        }
      ],
      "stateMutability": "view",
      "type": "function"
    },
    {
      "inputs": [],
      "name": "withdraw",
      "outputs": [],
      "stateMutability": "payable",
      "type": "function"
    }
  ],
  "transactionHash": "0x1ed65e60141f742b61c7a16f3b5900dda864b4d078e3877bae52eed053e0ec5b",
  "args": [],
  "numDeployments": 1,
  "solcInputHash": "c98edf0db9cdb517a464cecf5e5b398b",
  "bytecode": "0x608060405260146006819055600755600d805461ffff191690553480156200002657600080fd5b506040518060600160405280603a815260200162003897603a91396200004c816200020f565b50620000583362000228565b6003805460ff60a01b1916905560408051606081019091526035808252620038d1602083013980516200009491600491602090910190620006fa565b50600a60209081526127107f13da86008ba1c6922daee3e07db95305ef49ebced9f5467a0b8613fcc6b343e38190557fbbc70db1b6c7afd11e79c0fb0051300458f1a3acb8ee9789d9b6b26c61ad9bc781905560026000527fbff4442b8ed600beeb8e26b1279a0f0d14c6edfaec26d968ee13c86f7d4c2ba8556200012290620018146200027a821b17901c565b604080516003808252608082019092526000916020820160608036833750506040805160038082526080820190925292935060009291506020820160608036833701905050905060005b6003811015620001e357808382815181106200018c576200018c620007a0565b6020026020010181815250506001828281518110620001af57620001af620007a0565b602090810291909101810191909152600082815260099091526040902060019055620001db81620007cc565b90506200016c565b5062000207338383604051806020016040528060008152506200032d60201b60201c565b505062000a91565b805162000224906002906020840190620006fa565b5050565b600380546001600160a01b038381166001600160a01b0319831681179093556040519116919082907f8be0079c531659141344cd1fd0a4f28419497f9722a3daafe3b4186f6b6457e090600090a35050565b6200028e600354600160a01b900460ff1690565b15620002d45760405162461bcd60e51b815260206004820152601060248201526f14185d5cd8589b194e881c185d5cd95960821b60448201526064015b60405180910390fd5b6003805460ff60a01b1916600160a01b1790557f62e78cea01bee320cd4e420270b5ea74000d11b0c9f74754ebdbfc544b05a258620003103390565b6040516001600160a01b03909116815260200160405180910390a1565b6001600160a01b0384166200038f5760405162461bcd60e51b815260206004820152602160248201527f455243313135353a206d696e7420746f20746865207a65726f206164647265736044820152607360f81b6064820152608401620002cb565b8151835114620003f35760405162461bcd60e51b815260206004820152602860248201527f455243313135353a2069647320616e6420616d6f756e7473206c656e677468206044820152670dad2e6dac2e8c6d60c31b6064820152608401620002cb565b3360005b84518110156200049b57838181518110620004165762000416620007a0565b6020026020010151600080878481518110620004365762000436620007a0565b602002602001015181526020019081526020016000206000886001600160a01b03166001600160a01b031681526020019081526020016000206000828254620004809190620007e8565b909155508190506200049281620007cc565b915050620003f7565b50846001600160a01b031660006001600160a01b0316826001600160a01b03167f4a39dc06d4c0dbc64b70af90fd698a233a518aa5d07e595d983b8c0526c8f7fb8787604051620004ee92919062000840565b60405180910390a4620005078160008787878762000516565b5050505050565b505050505050565b62000535846001600160a01b0316620006eb60201b620018961760201c565b156200050e5760405163bc197c8160e01b81526001600160a01b0385169063bc197c8190620005719089908990889088908890600401620008c2565b6020604051808303816000875af1925050508015620005af575060408051601f3d908101601f19168201909252620005ac9181019062000926565b60015b6200066f57620005be62000959565b806308c379a003620005fe5750620005d5620009b1565b80620005e2575062000600565b8060405162461bcd60e51b8152600401620002cb919062000a40565b505b60405162461bcd60e51b815260206004820152603460248201527f455243313135353a207472616e7366657220746f206e6f6e204552433131353560448201527f526563656976657220696d706c656d656e7465720000000000000000000000006064820152608401620002cb565b6001600160e01b0319811663bc197c8160e01b14620006e25760405162461bcd60e51b815260206004820152602860248201527f455243313135353a204552433131353552656365697665722072656a656374656044820152676420746f6b656e7360c01b6064820152608401620002cb565b50505050505050565b6001600160a01b03163b151590565b828054620007089062000a55565b90600052602060002090601f0160209004810192826200072c576000855562000777565b82601f106200074757805160ff191683800117855562000777565b8280016001018555821562000777579182015b82811115620007775782518255916020019190600101906200075a565b506200078592915062000789565b5090565b5b808211156200078557600081556001016200078a565b634e487b7160e01b600052603260045260246000fd5b634e487b7160e01b600052601160045260246000fd5b600060018201620007e157620007e1620007b6565b5060010190565b60008219821115620007fe57620007fe620007b6565b500190565b600081518084526020808501945080840160005b83811015620008355781518752958201959082019060010162000817565b509495945050505050565b60408152600062000855604083018562000803565b828103602084015262000869818562000803565b95945050505050565b6000815180845260005b818110156200089a576020818501810151868301820152016200087c565b81811115620008ad576000602083870101525b50601f01601f19169290920160200192915050565b6001600160a01b0386811682528516602082015260a060408201819052600090620008f09083018662000803565b828103606084015262000904818662000803565b905082810360808401526200091a818562000872565b98975050505050505050565b6000602082840312156200093957600080fd5b81516001600160e01b0319811681146200095257600080fd5b9392505050565b600060033d1115620009735760046000803e5060005160e01c5b90565b601f8201601f191681016001600160401b0381118282101715620009aa57634e487b7160e01b600052604160045260246000fd5b6040525050565b600060443d1015620009c05790565b6040516003193d81016004833e81513d6001600160401b038083116024840183101715620009f057505050505090565b828501915081518181111562000a095750505050505090565b843d870101602082850101111562000a245750505050505090565b62000a356020828601018762000976565b509095945050505050565b60208152600062000952602083018462000872565b600181811c9082168062000a6a57607f821691505b60208210810362000a8b57634e487b7160e01b600052602260045260246000fd5b50919050565b612df68062000aa16000396000f3fe6080604052600436106102195760003560e01c80638da5cb5b11610123578063d901b2bc116100ab578063edec5f271161006f578063edec5f271461064c578063f0292a031461066c578063f242432a14610682578063f2fde38b146106a2578063fe8c72eb146106c257600080fd5b8063d901b2bc14610574578063da8596ba14610594578063db50c057146105c1578063e8a3d485146105ee578063e985e9c51461060357600080fd5b8063b99eacd1116100f2578063b99eacd1146104f6578063bd85b0391461050c578063c0e24d5e1461052c578063c3b754dc14610541578063d351cfdc1461056157600080fd5b80638da5cb5b14610461578063938e3d7b146104895780639fe88fa5146104a9578063a22cb465146104d657600080fd5b80633867c76e116101a65780634f02c420116101755780634f02c420146103cd578063573f5dae146103fb5780635c975abb1461041a578063715018a6146104395780637cab00921461044e57600080fd5b80633867c76e1461035e578063388b9fe0146103785780633ccfd60b146103985780634e1273f4146103a057600080fd5b80630c468087116101ed5780630c468087146102c75780630e89341c146102dc57806316c38b3c146103095780631b2ef1ca1461032b5780632eb2c2d61461033e57600080fd5b8062fdd58e1461021e5780630109c52e1461025157806301ffc9a71461026757806306c933d814610297575b600080fd5b34801561022a57600080fd5b5061023e61023936600461223d565b6106e2565b6040519081526020015b60405180910390f35b34801561025d57600080fd5b5061023e60075481565b34801561027357600080fd5b5061028761028236600461227d565b610779565b6040519015158152602001610248565b3480156102a357600080fd5b506102876102b23660046122a1565b600b6020526000908152604090205460ff1681565b3480156102d357600080fd5b5061023e600381565b3480156102e857600080fd5b506102fc6102f73660046122bc565b6107cb565b6040516102489190612322565b34801561031557600080fd5b50610329610324366004612345565b61085f565b005b610329610339366004612360565b6108a2565b34801561034a57600080fd5b506103296103593660046124ce565b6109b1565b34801561036a57600080fd5b5061023e655af3107a400081565b34801561038457600080fd5b50610329610393366004612578565b610a48565b610329610b0b565b3480156103ac57600080fd5b506103c06103bb3660046125ab565b610be2565b60405161024891906126b1565b3480156103d957600080fd5b506008546103e89061ffff1681565b60405161ffff9091168152602001610248565b34801561040757600080fd5b50600d5461028790610100900460ff1681565b34801561042657600080fd5b50600354600160a01b900460ff16610287565b34801561044557600080fd5b50610329610d0c565b61032961045c366004612360565b610d42565b34801561046d57600080fd5b506003546040516001600160a01b039091168152602001610248565b34801561049557600080fd5b506103296104a43660046126c4565b61109e565b3480156104b557600080fd5b5061023e6104c43660046122bc565b600a6020526000908152604090205481565b3480156104e257600080fd5b506103296104f1366004612736565b6110d4565b34801561050257600080fd5b5061023e60055481565b34801561051857600080fd5b5061023e6105273660046122bc565b6110e3565b34801561053857600080fd5b506102fc611118565b34801561054d57600080fd5b5061032961055c366004612345565b6111a6565b61032961056f3660046127b5565b6111f9565b34801561058057600080fd5b5061032961058f3660046127b5565b6113e3565b3480156105a057600080fd5b5061023e6105af3660046122bc565b60096020526000908152604090205481565b3480156105cd57600080fd5b5061023e6105dc3660046122a1565b600c6020526000908152604090205481565b3480156105fa57600080fd5b506102fc611598565b34801561060f57600080fd5b5061028761061e366004612821565b6001600160a01b03918216600090815260016020908152604080832093909416825291909152205460ff1690565b34801561065857600080fd5b5061032961066736600461284b565b61162a565b34801561067857600080fd5b5061023e60065481565b34801561068e57600080fd5b5061032961069d36600461288d565b6116c6565b3480156106ae57600080fd5b506103296106bd3660046122a1565b61174d565b3480156106ce57600080fd5b506103296106dd3660046122bc565b6117e5565b60006001600160a01b0383166107535760405162461bcd60e51b815260206004820152602b60248201527f455243313135353a2062616c616e636520717565727920666f7220746865207a60448201526a65726f206164647265737360a81b60648201526084015b60405180910390fd5b506000908152602081815260408083206001600160a01b03949094168352929052205490565b60006001600160e01b03198216636cdb3d1360e11b14806107aa57506001600160e01b031982166303a24d0760e21b145b806107c557506301ffc9a760e01b6001600160e01b03198316145b92915050565b6060600280546107da906128f2565b80601f0160208091040260200160405190810160405280929190818152602001828054610806906128f2565b80156108535780601f1061082857610100808354040283529160200191610853565b820191906000526020600020905b81548152906001019060200180831161083657829003601f168201915b50505050509050919050565b6003546001600160a01b031633146108895760405162461bcd60e51b815260040161074a9061292c565b801561089a57610897611814565b50565b6108976118a5565b600354600160a01b900460ff16156108cc5760405162461bcd60e51b815260040161074a90612961565b600382106108ec5760405162461bcd60e51b815260040161074a9061298b565b600082815260096020908152604080832054600a9092529091205461091183836129c9565b1061092e5760405162461bcd60e51b815260040161074a906129e1565b61093e655af3107a400083612a0a565b341461095c5760405162461bcd60e51b815260040161074a90612a29565b33321461097b5760405162461bcd60e51b815260040161074a90612a50565b600083815260096020908152604080832093850193849055805191820190529081526109ac90339085908590611929565b505050565b6001600160a01b0385163314806109cd57506109cd853361061e565b610a345760405162461bcd60e51b815260206004820152603260248201527f455243313135353a207472616e736665722063616c6c6572206973206e6f74206044820152711bdddb995c881b9bdc88185c1c1c9bdd995960721b606482015260840161074a565b610a4185858585856119f9565b5050505050565b6003546001600160a01b03163314610a725760405162461bcd60e51b815260040161074a9061292c565b60038210610a925760405162461bcd60e51b815260040161074a9061298b565b600082815260096020908152604080832054600a90925290912054610ab783836129c9565b10610ad45760405162461bcd60e51b815260040161074a906129e1565b60008381526009602090815260408083209385019384905580519182019052908152610b0590859085908590611929565b50505050565b6003546001600160a01b03163314610b355760405162461bcd60e51b815260040161074a9061292c565b6000610b496003546001600160a01b031690565b6001600160a01b03164760405160006040518083038185875af1925050503d8060008114610b93576040519150601f19603f3d011682016040523d82523d6000602084013e610b98565b606091505b50509050806108975760405162461bcd60e51b81526020600482015260166024820152750ccc2d2d8cac840e8de40eed2e8d0c8e4c2ee408aa8960531b604482015260640161074a565b60608151835114610c475760405162461bcd60e51b815260206004820152602960248201527f455243313135353a206163636f756e747320616e6420696473206c656e677468604482015268040dad2e6dac2e8c6d60bb1b606482015260840161074a565b6000835167ffffffffffffffff811115610c6357610c63612382565b604051908082528060200260200182016040528015610c8c578160200160208202803683370190505b50905060005b8451811015610d0457610cd7858281518110610cb057610cb0612a7c565b6020026020010151858381518110610cca57610cca612a7c565b60200260200101516106e2565b828281518110610ce957610ce9612a7c565b6020908102919091010152610cfd81612a92565b9050610c92565b509392505050565b6003546001600160a01b03163314610d365760405162461bcd60e51b815260040161074a9061292c565b610d406000611b8d565b565b600d5460ff1615610d855760405162461bcd60e51b815260206004820152600d60248201526c4e6f207265656e7472616e637960981b604482015260640161074a565b600d805460ff191660011790819055610100900460ff168015610da9575042600554115b610deb5760405162461bcd60e51b81526020600482015260136024820152720eed0d2e8cad8d2e6e840d2e640ccd2dcd2e6d606b1b604482015260640161074a565b336000908152600b602052604090205460ff161515600114610e4f5760405162461bcd60e51b815260206004820152601760248201527f596f752772206e6f742077686974656c69737465642021000000000000000000604482015260640161074a565b600754336000908152600c6020526040902054610e6d9083906129c9565b1115610ec95760405162461bcd60e51b815260206004820152602560248201527f4f6e6c79203230204e6674732062792077686974656c69737465642061646472604482015264032b9b997160dd1b606482015260840161074a565b60038210610ee95760405162461bcd60e51b815260040161074a9061298b565b600854602890610efe90839061ffff166129c9565b1115610f405760405162461bcd60e51b8152602060048201526011602482015270105b1b081d1bdad95b9cc81b5a5b9d1959607a1b604482015260640161074a565b600081118015610f5257506006548111155b610f945760405162461bcd60e51b8152602060048201526013602482015272125b9d985b1a59081b5a5b9d08185b5bdd5b9d606a1b604482015260640161074a565b600082815260096020526040902054610fb3655af3107a400083612a0a565b3414610fd15760405162461bcd60e51b815260040161074a90612a29565b333214610ff05760405162461bcd60e51b815260040161074a90612a50565b6000838152600960205260408120918301918290555b82811015611073576008805461ffff1690600061102283612aab565b825461ffff9182166101009390930a928302919092021990911617905550336000908152600c6020526040812080549161105b83612a92565b9190505550808061106b90612a92565b915050611006565b5061108f33848460405180602001604052806000815250611929565b5050600d805460ff1916905550565b6003546001600160a01b031633146110c85760405162461bcd60e51b815260040161074a9061292c565b6109ac60048383612188565b6110df338383611bdf565b5050565b6000600382106111055760405162461bcd60e51b815260040161074a9061298b565b5060009081526009602052604090205490565b60048054611125906128f2565b80601f0160208091040260200160405190810160405280929190818152602001828054611151906128f2565b801561119e5780601f106111735761010080835404028352916020019161119e565b820191906000526020600020905b81548152906001019060200180831161118157829003601f168201915b505050505081565b6003546001600160a01b031633146111d05760405162461bcd60e51b815260040161074a9061292c565b6111dc426102586129c9565b600555600d80549115156101000261ff0019909216919091179055565b600354600160a01b900460ff16156112235760405162461bcd60e51b815260040161074a90612961565b600083815b818110156112665784848281811061124257611242612a7c565b905060200201358361125491906129c9565b925061125f81612a92565b9050611228565b50611277655af3107a400083612a0a565b34146112955760405162461bcd60e51b815260040161074a90612a29565b60005b8181101561135e5760008787838181106112b4576112b4612a7c565b90506020020135905060008686848181106112d1576112d1612a7c565b600085815260096020908152604080832054600a835292205492029390930135935090506112ff83836129c9565b1061131c5760405162461bcd60e51b815260040161074a906129e1565b33321461133b5760405162461bcd60e51b815260040161074a90612a50565b6000928352600960205260409092209101905561135781612a92565b9050611298565b506113db3387878080602002602001604051908101604052809392919081815260200183836020028082843760009201919091525050604080516020808b0282810182019093528a82529093508a925089918291850190849080828437600092018290525060408051602081019091529081529250611cbf915050565b505050505050565b6003546001600160a01b0316331461140d5760405162461bcd60e51b815260040161074a9061292c565b8260005b8181101561151b5760006009600088888581811061143157611431612a7c565b905060200201358152602001908152602001600020549050600087878481811061145d5761145d612a7c565b905060200201359050600086868581811061147a5761147a612a7c565b905060200201359050600382106114a35760405162461bcd60e51b815260040161074a9061298b565b6000828152600a60205260409020546114bc82856129c9565b106114d95760405162461bcd60e51b815260040161074a906129e1565b3332146114f85760405162461bcd60e51b815260040161074a90612a50565b6000918252600960205260409091209101905561151481612a92565b9050611411565b50610a413386868080602002602001604051908101604052809392919081815260200183836020028082843760009201919091525050604080516020808a02828101820190935289825290935089925088918291850190849080828437600092018290525060408051602081019091529081529250611cbf915050565b6060600480546115a7906128f2565b80601f01602080910402602001604051908101604052809291908181526020018280546115d3906128f2565b80156116205780601f106115f557610100808354040283529160200191611620565b820191906000526020600020905b81548152906001019060200180831161160357829003601f168201915b5050505050905090565b6003546001600160a01b031633146116545760405162461bcd60e51b815260040161074a9061292c565b60005b818110156109ac576001600b600085858581811061167757611677612a7c565b905060200201602081019061168c91906122a1565b6001600160a01b031681526020810191909152604001600020805460ff1916911515919091179055806116be81612a92565b915050611657565b6001600160a01b0385163314806116e257506116e2853361061e565b6117405760405162461bcd60e51b815260206004820152602960248201527f455243313135353a2063616c6c6572206973206e6f74206f776e6572206e6f7260448201526808185c1c1c9bdd995960ba1b606482015260840161074a565b610a418585858585611e0a565b6003546001600160a01b031633146117775760405162461bcd60e51b815260040161074a9061292c565b6001600160a01b0381166117dc5760405162461bcd60e51b815260206004820152602660248201527f4f776e61626c653a206e6577206f776e657220697320746865207a65726f206160448201526564647265737360d01b606482015260840161074a565b61089781611b8d565b6003546001600160a01b0316331461180f5760405162461bcd60e51b815260040161074a9061292c565b600755565b600354600160a01b900460ff161561183e5760405162461bcd60e51b815260040161074a90612961565b6003805460ff60a01b1916600160a01b1790557f62e78cea01bee320cd4e420270b5ea74000d11b0c9f74754ebdbfc544b05a2586118793390565b6040516001600160a01b03909116815260200160405180910390a1565b6001600160a01b03163b151590565b600354600160a01b900460ff166118f55760405162461bcd60e51b815260206004820152601460248201527314185d5cd8589b194e881b9bdd081c185d5cd95960621b604482015260640161074a565b6003805460ff60a01b191690557f5db9ee0a495bf2e6ff9c91a7834c1ba4fdd244a5e8aa4e537bd38aeae4b073aa33611879565b6001600160a01b03841661194f5760405162461bcd60e51b815260040161074a90612acc565b336119698160008761196088611f27565b610a4188611f27565b6000848152602081815260408083206001600160a01b0389168452909152812080548592906119999084906129c9565b909155505060408051858152602081018590526001600160a01b0380881692600092918516917fc3d58168c5ae7397731d063d5bbf3d657854427343f4c083240f7aacaa2d0f62910160405180910390a4610a4181600087878787611f72565b8151835114611a1a5760405162461bcd60e51b815260040161074a90612b0d565b6001600160a01b038416611a405760405162461bcd60e51b815260040161074a90612b55565b3360005b8451811015611b27576000858281518110611a6157611a61612a7c565b602002602001015190506000858381518110611a7f57611a7f612a7c565b602090810291909101810151600084815280835260408082206001600160a01b038e168352909352919091205490915081811015611acf5760405162461bcd60e51b815260040161074a90612b9a565b6000838152602081815260408083206001600160a01b038e8116855292528083208585039055908b16825281208054849290611b0c9084906129c9565b9250508190555050505080611b2090612a92565b9050611a44565b50846001600160a01b0316866001600160a01b0316826001600160a01b03167f4a39dc06d4c0dbc64b70af90fd698a233a518aa5d07e595d983b8c0526c8f7fb8787604051611b77929190612be4565b60405180910390a46113db8187878787876120cd565b600380546001600160a01b038381166001600160a01b0319831681179093556040519116919082907f8be0079c531659141344cd1fd0a4f28419497f9722a3daafe3b4186f6b6457e090600090a35050565b816001600160a01b0316836001600160a01b031603611c525760405162461bcd60e51b815260206004820152602960248201527f455243313135353a2073657474696e6720617070726f76616c20737461747573604482015268103337b91039b2b63360b91b606482015260840161074a565b6001600160a01b03838116600081815260016020908152604080832094871680845294825291829020805460ff191686151590811790915591519182527f17307eab39ab6107e8899845ad3d59bd9653f200f220920489ca2b5937696c31910160405180910390a3505050565b6001600160a01b038416611ce55760405162461bcd60e51b815260040161074a90612acc565b8151835114611d065760405162461bcd60e51b815260040161074a90612b0d565b3360005b8451811015611da257838181518110611d2557611d25612a7c565b6020026020010151600080878481518110611d4257611d42612a7c565b602002602001015181526020019081526020016000206000886001600160a01b03166001600160a01b031681526020019081526020016000206000828254611d8a91906129c9565b90915550819050611d9a81612a92565b915050611d0a565b50846001600160a01b031660006001600160a01b0316826001600160a01b03167f4a39dc06d4c0dbc64b70af90fd698a233a518aa5d07e595d983b8c0526c8f7fb8787604051611df3929190612be4565b60405180910390a4610a41816000878787876120cd565b6001600160a01b038416611e305760405162461bcd60e51b815260040161074a90612b55565b33611e4081878761196088611f27565b6000848152602081815260408083206001600160a01b038a16845290915290205483811015611e815760405162461bcd60e51b815260040161074a90612b9a565b6000858152602081815260408083206001600160a01b038b8116855292528083208785039055908816825281208054869290611ebe9084906129c9565b909155505060408051868152602081018690526001600160a01b03808916928a821692918616917fc3d58168c5ae7397731d063d5bbf3d657854427343f4c083240f7aacaa2d0f62910160405180910390a4611f1e828888888888611f72565b50505050505050565b60408051600180825281830190925260609160009190602080830190803683370190505090508281600081518110611f6157611f61612a7c565b602090810291909101015292915050565b6001600160a01b0384163b156113db5760405163f23a6e6160e01b81526001600160a01b0385169063f23a6e6190611fb69089908990889088908890600401612c12565b6020604051808303816000875af1925050508015611ff1575060408051601f3d908101601f19168201909252611fee91810190612c57565b60015b61209d57611ffd612c74565b806308c379a0036120365750612011612c90565b8061201c5750612038565b8060405162461bcd60e51b815260040161074a9190612322565b505b60405162461bcd60e51b815260206004820152603460248201527f455243313135353a207472616e7366657220746f206e6f6e20455243313135356044820152732932b1b2b4bb32b91034b6b83632b6b2b73a32b960611b606482015260840161074a565b6001600160e01b0319811663f23a6e6160e01b14611f1e5760405162461bcd60e51b815260040161074a90612d1a565b6001600160a01b0384163b156113db5760405163bc197c8160e01b81526001600160a01b0385169063bc197c81906121119089908990889088908890600401612d62565b6020604051808303816000875af192505050801561214c575060408051601f3d908101601f1916820190925261214991810190612c57565b60015b61215857611ffd612c74565b6001600160e01b0319811663bc197c8160e01b14611f1e5760405162461bcd60e51b815260040161074a90612d1a565b828054612194906128f2565b90600052602060002090601f0160209004810192826121b657600085556121fc565b82601f106121cf5782800160ff198235161785556121fc565b828001600101855582156121fc579182015b828111156121fc5782358255916020019190600101906121e1565b5061220892915061220c565b5090565b5b80821115612208576000815560010161220d565b80356001600160a01b038116811461223857600080fd5b919050565b6000806040838503121561225057600080fd5b61225983612221565b946020939093013593505050565b6001600160e01b03198116811461089757600080fd5b60006020828403121561228f57600080fd5b813561229a81612267565b9392505050565b6000602082840312156122b357600080fd5b61229a82612221565b6000602082840312156122ce57600080fd5b5035919050565b6000815180845260005b818110156122fb576020818501810151868301820152016122df565b8181111561230d576000602083870101525b50601f01601f19169290920160200192915050565b60208152600061229a60208301846122d5565b8035801515811461223857600080fd5b60006020828403121561235757600080fd5b61229a82612335565b6000806040838503121561237357600080fd5b50508035926020909101359150565b634e487b7160e01b600052604160045260246000fd5b601f8201601f1916810167ffffffffffffffff811182821017156123be576123be612382565b6040525050565b600067ffffffffffffffff8211156123df576123df612382565b5060051b60200190565b600082601f8301126123fa57600080fd5b81356020612407826123c5565b6040516124148282612398565b83815260059390931b850182019282810191508684111561243457600080fd5b8286015b8481101561244f5780358352918301918301612438565b509695505050505050565b600082601f83011261246b57600080fd5b813567ffffffffffffffff81111561248557612485612382565b60405161249c601f8301601f191660200182612398565b8181528460208386010111156124b157600080fd5b816020850160208301376000918101602001919091529392505050565b600080600080600060a086880312156124e657600080fd5b6124ef86612221565b94506124fd60208701612221565b9350604086013567ffffffffffffffff8082111561251a57600080fd5b61252689838a016123e9565b9450606088013591508082111561253c57600080fd5b61254889838a016123e9565b9350608088013591508082111561255e57600080fd5b5061256b8882890161245a565b9150509295509295909350565b60008060006060848603121561258d57600080fd5b61259684612221565b95602085013595506040909401359392505050565b600080604083850312156125be57600080fd5b823567ffffffffffffffff808211156125d657600080fd5b818501915085601f8301126125ea57600080fd5b813560206125f7826123c5565b6040516126048282612398565b83815260059390931b850182019282810191508984111561262457600080fd5b948201945b838610156126495761263a86612221565b82529482019490820190612629565b9650508601359250508082111561265f57600080fd5b5061266c858286016123e9565b9150509250929050565b600081518084526020808501945080840160005b838110156126a65781518752958201959082019060010161268a565b509495945050505050565b60208152600061229a6020830184612676565b600080602083850312156126d757600080fd5b823567ffffffffffffffff808211156126ef57600080fd5b818501915085601f83011261270357600080fd5b81358181111561271257600080fd5b86602082850101111561272457600080fd5b60209290920196919550909350505050565b6000806040838503121561274957600080fd5b61275283612221565b915061276060208401612335565b90509250929050565b60008083601f84011261277b57600080fd5b50813567ffffffffffffffff81111561279357600080fd5b6020830191508360208260051b85010111156127ae57600080fd5b9250929050565b600080600080604085870312156127cb57600080fd5b843567ffffffffffffffff808211156127e357600080fd5b6127ef88838901612769565b9096509450602087013591508082111561280857600080fd5b5061281587828801612769565b95989497509550505050565b6000806040838503121561283457600080fd5b61283d83612221565b915061276060208401612221565b6000806020838503121561285e57600080fd5b823567ffffffffffffffff81111561287557600080fd5b61288185828601612769565b90969095509350505050565b600080600080600060a086880312156128a557600080fd5b6128ae86612221565b94506128bc60208701612221565b93506040860135925060608601359150608086013567ffffffffffffffff8111156128e657600080fd5b61256b8882890161245a565b600181811c9082168061290657607f821691505b60208210810361292657634e487b7160e01b600052602260045260246000fd5b50919050565b6020808252818101527f4f776e61626c653a2063616c6c6572206973206e6f7420746865206f776e6572604082015260600190565b60208082526010908201526f14185d5cd8589b194e881c185d5cd95960821b604082015260600190565b6020808252600e908201526d6964206d757374206265203c203360901b604082015260600190565b634e487b7160e01b600052601160045260246000fd5b600082198211156129dc576129dc6129b3565b500190565b6020808252600f908201526e1cdd5c1c1b1e48195e18d959591959608a1b604082015260600190565b6000816000190483118215151615612a2457612a246129b3565b500290565b6020808252600d908201526c0d2dcc6dee4e4cac6e8408aa89609b1b604082015260600190565b6020808252601290820152716e6f20736d61727420636f6e74726163747360701b604082015260600190565b634e487b7160e01b600052603260045260246000fd5b600060018201612aa457612aa46129b3565b5060010190565b600061ffff808316818103612ac257612ac26129b3565b6001019392505050565b60208082526021908201527f455243313135353a206d696e7420746f20746865207a65726f206164647265736040820152607360f81b606082015260800190565b60208082526028908201527f455243313135353a2069647320616e6420616d6f756e7473206c656e677468206040820152670dad2e6dac2e8c6d60c31b606082015260800190565b60208082526025908201527f455243313135353a207472616e7366657220746f20746865207a65726f206164604082015264647265737360d81b606082015260800190565b6020808252602a908201527f455243313135353a20696e73756666696369656e742062616c616e636520666f60408201526939103a3930b739b332b960b11b606082015260800190565b604081526000612bf76040830185612676565b8281036020840152612c098185612676565b95945050505050565b6001600160a01b03868116825285166020820152604081018490526060810183905260a060808201819052600090612c4c908301846122d5565b979650505050505050565b600060208284031215612c6957600080fd5b815161229a81612267565b600060033d1115612c8d5760046000803e5060005160e01c5b90565b600060443d1015612c9e5790565b6040516003193d81016004833e81513d67ffffffffffffffff8160248401118184111715612cce57505050505090565b8285019150815181811115612ce65750505050505090565b843d8701016020828501011115612d005750505050505090565b612d0f60208286010187612398565b509095945050505050565b60208082526028908201527f455243313135353a204552433131353552656365697665722072656a656374656040820152676420746f6b656e7360c01b606082015260800190565b6001600160a01b0386811682528516602082015260a060408201819052600090612d8e90830186612676565b8281036060840152612da08186612676565b90508281036080840152612db481856122d5565b9897505050505050505056fea2646970667358221220566887f89a65fa9fd1bab22fffc77bd0fb59334e812c4efa890baeabab4a499b64736f6c634300080e0033697066733a2f2f516d55753937675274674b6b6838765a656f6552757153636432415035444b52384d5748743361686b71367733682f7b69647d697066733a2f2f516d5a4148704735755a796a415368454653656e704c4a43314b68474468557a554a5650634b416733545a4b444e",
  "devdoc": {
    "kind": "dev",
    "methods": {
      "balanceOf(address,uint256)": {
        "details": "See {IERC1155-balanceOf}. Requirements: - `account` cannot be the zero address."
      },
      "balanceOfBatch(address[],uint256[])": {
        "details": "See {IERC1155-balanceOfBatch}. Requirements: - `accounts` and `ids` must have the same length."
      },
      "contractURI()": {
        "details": "function for OpenSea that returns uri of the contract metadata"
      },
      "isApprovedForAll(address,address)": {
        "details": "See {IERC1155-isApprovedForAll}."
      },
      "owner()": {
        "details": "Returns the address of the current owner."
      },
      "paused()": {
        "details": "Returns true if the contract is paused, and false otherwise."
      },
      "renounceOwnership()": {
        "details": "Leaves the contract without owner. It will not be possible to call `onlyOwner` functions anymore. Can only be called by the current owner. NOTE: Renouncing ownership will leave the contract without an owner, thereby removing any functionality that is only available to the owner."
      },
      "safeBatchTransferFrom(address,address,uint256[],uint256[],bytes)": {
        "details": "See {IERC1155-safeBatchTransferFrom}."
      },
      "safeTransferFrom(address,address,uint256,uint256,bytes)": {
        "details": "See {IERC1155-safeTransferFrom}."
      },
      "setApprovalForAll(address,bool)": {
        "details": "See {IERC1155-setApprovalForAll}."
      },
      "supportsInterface(bytes4)": {
        "details": "See {IERC165-supportsInterface}."
      },
      "totalSupply(uint256)": {
        "details": "function for OpenSea that returns the total quantity of a token ID currently in existence"
      },
      "transferOwnership(address)": {
        "details": "Transfers ownership of the contract to a new account (`newOwner`). Can only be called by the current owner."
      },
      "uri(uint256)": {
        "details": "See {IERC1155MetadataURI-uri}. This implementation returns the same URI for *all* token types. It relies on the token type ID substitution mechanism https://eips.ethereum.org/EIPS/eip-1155#metadata[defined in the EIP]. Clients calling this function must replace the `\\{id\\}` substring with the actual token type ID."
      }
    },
    "version": 1
  },
  "userdoc": {
    "kind": "user",
    "methods": {},
    "version": 1
  },
  "storageLayout": {
    "storage": [
      {
        "astId": 222,
        "contract": "solidity/contracts/CKNFT.sol:CKNFT",
        "label": "_balances",
        "offset": 0,
        "slot": "0",
        "type": "t_mapping(t_uint256,t_mapping(t_address,t_uint256))"
      },
      {
        "astId": 228,
        "contract": "solidity/contracts/CKNFT.sol:CKNFT",
        "label": "_operatorApprovals",
        "offset": 0,
        "slot": "1",
        "type": "t_mapping(t_address,t_mapping(t_address,t_bool))"
      },
      {
        "astId": 230,
        "contract": "solidity/contracts/CKNFT.sol:CKNFT",
        "label": "_uri",
        "offset": 0,
        "slot": "2",
        "type": "t_string_storage"
      },
      {
        "astId": 7,
        "contract": "solidity/contracts/CKNFT.sol:CKNFT",
        "label": "_owner",
        "offset": 0,
        "slot": "3",
        "type": "t_address"
      },
      {
        "astId": 122,
        "contract": "solidity/contracts/CKNFT.sol:CKNFT",
        "label": "_paused",
        "offset": 20,
        "slot": "3",
        "type": "t_bool"
      },
      {
        "astId": 1836,
        "contract": "solidity/contracts/CKNFT.sol:CKNFT",
        "label": "contractUri",
        "offset": 0,
        "slot": "4",
        "type": "t_string_storage"
      },
      {
        "astId": 1844,
        "contract": "solidity/contracts/CKNFT.sol:CKNFT",
        "label": "WL_TIMER",
        "offset": 0,
        "slot": "5",
        "type": "t_uint256"
      },
      {
        "astId": 1847,
        "contract": "solidity/contracts/CKNFT.sol:CKNFT",
        "label": "MAX_MINT",
        "offset": 0,
        "slot": "6",
        "type": "t_uint256"
      },
      {
        "astId": 1850,
        "contract": "solidity/contracts/CKNFT.sol:CKNFT",
        "label": "MAX_WL_MINT",
        "offset": 0,
        "slot": "7",
        "type": "t_uint256"
      },
      {
        "astId": 1852,
        "contract": "solidity/contracts/CKNFT.sol:CKNFT",
        "label": "minted",
        "offset": 0,
        "slot": "8",
        "type": "t_uint16"
      },
      {
        "astId": 1856,
        "contract": "solidity/contracts/CKNFT.sol:CKNFT",
        "label": "tokenIdToExistingSupply",
        "offset": 0,
        "slot": "9",
        "type": "t_mapping(t_uint256,t_uint256)"
      },
      {
        "astId": 1860,
        "contract": "solidity/contracts/CKNFT.sol:CKNFT",
        "label": "tokenIdToMaxSupplyPlusOne",
        "offset": 0,
        "slot": "10",
        "type": "t_mapping(t_uint256,t_uint256)"
      },
      {
        "astId": 1864,
        "contract": "solidity/contracts/CKNFT.sol:CKNFT",
        "label": "whitelistedAddresses",
        "offset": 0,
        "slot": "11",
        "type": "t_mapping(t_address,t_bool)"
      },
      {
        "astId": 1868,
        "contract": "solidity/contracts/CKNFT.sol:CKNFT",
        "label": "whitelistedPermit",
        "offset": 0,
        "slot": "12",
        "type": "t_mapping(t_address,t_uint256)"
      },
      {
        "astId": 1871,
        "contract": "solidity/contracts/CKNFT.sol:CKNFT",
        "label": "_reentrant",
        "offset": 0,
        "slot": "13",
        "type": "t_bool"
      },
      {
        "astId": 1874,
        "contract": "solidity/contracts/CKNFT.sol:CKNFT",
        "label": "isWhiteListActive",
        "offset": 1,
        "slot": "13",
        "type": "t_bool"
      }
    ],
    "types": {
      "t_address": {
        "encoding": "inplace",
        "label": "address",
        "numberOfBytes": "20"
      },
      "t_bool": {
        "encoding": "inplace",
        "label": "bool",
        "numberOfBytes": "1"
      },
      "t_mapping(t_address,t_bool)": {
        "encoding": "mapping",
        "key": "t_address",
        "label": "mapping(address => bool)",
        "numberOfBytes": "32",
        "value": "t_bool"
      },
      "t_mapping(t_address,t_mapping(t_address,t_bool))": {
        "encoding": "mapping",
        "key": "t_address",
        "label": "mapping(address => mapping(address => bool))",
        "numberOfBytes": "32",
        "value": "t_mapping(t_address,t_bool)"
      },
      "t_mapping(t_address,t_uint256)": {
        "encoding": "mapping",
        "key": "t_address",
        "label": "mapping(address => uint256)",
        "numberOfBytes": "32",
        "value": "t_uint256"
      },
      "t_mapping(t_uint256,t_mapping(t_address,t_uint256))": {
        "encoding": "mapping",
        "key": "t_uint256",
        "label": "mapping(uint256 => mapping(address => uint256))",
        "numberOfBytes": "32",
        "value": "t_mapping(t_address,t_uint256)"
      },
      "t_mapping(t_uint256,t_uint256)": {
        "encoding": "mapping",
        "key": "t_uint256",
        "label": "mapping(uint256 => uint256)",
        "numberOfBytes": "32",
        "value": "t_uint256"
      },
      "t_string_storage": {
        "encoding": "bytes",
        "label": "string",
        "numberOfBytes": "32"
      },
      "t_uint16": {
        "encoding": "inplace",
        "label": "uint16",
        "numberOfBytes": "2"
      },
      "t_uint256": {
        "encoding": "inplace",
        "label": "uint256",
        "numberOfBytes": "32"
      }
    }
  }
}