{
  "_format": "hh-sol-artifact-1",
  "contractName": "CKNFT",
  "sourceName": "solidity/contracts/CKNFT.sol",
  "abi": [
    {
      "inputs": [],
      "stateMutability": "nonpayable",
      "type": "constructor"
    },
    {
      "anonymous": false,
      "inputs": [
        {
          "indexed": true,
          "internalType": "address",
          "name": "account",
          "type": "address"
        },
        {
          "indexed": true,
          "internalType": "address",
          "name": "operator",
          "type": "address"
        },
        {
          "indexed": false,
          "internalType": "bool",
          "name": "approved",
          "type": "bool"
        }
      ],
      "name": "ApprovalForAll",
      "type": "event"
    },
    {
      "anonymous": false,
      "inputs": [
        {
          "indexed": true,
          "internalType": "address",
          "name": "previousOwner",
          "type": "address"
        },
        {
          "indexed": true,
          "internalType": "address",
          "name": "newOwner",
          "type": "address"
        }
      ],
      "name": "OwnershipTransferred",
      "type": "event"
    },
    {
      "anonymous": false,
      "inputs": [
        {
          "indexed": false,
          "internalType": "address",
          "name": "account",
          "type": "address"
        }
      ],
      "name": "Paused",
      "type": "event"
    },
    {
      "anonymous": false,
      "inputs": [
        {
          "indexed": true,
          "internalType": "address",
          "name": "operator",
          "type": "address"
        },
        {
          "indexed": true,
          "internalType": "address",
          "name": "from",
          "type": "address"
        },
        {
          "indexed": true,
          "internalType": "address",
          "name": "to",
          "type": "address"
        },
        {
          "indexed": false,
          "internalType": "uint256[]",
          "name": "ids",
          "type": "uint256[]"
        },
        {
          "indexed": false,
          "internalType": "uint256[]",
          "name": "values",
          "type": "uint256[]"
        }
      ],
      "name": "TransferBatch",
      "type": "event"
    },
    {
      "anonymous": false,
      "inputs": [
        {
          "indexed": true,
          "internalType": "address",
          "name": "operator",
          "type": "address"
        },
        {
          "indexed": true,
          "internalType": "address",
          "name": "from",
          "type": "address"
        },
        {
          "indexed": true,
          "internalType": "address",
          "name": "to",
          "type": "address"
        },
        {
          "indexed": false,
          "internalType": "uint256",
          "name": "id",
          "type": "uint256"
        },
        {
          "indexed": false,
          "internalType": "uint256",
          "name": "value",
          "type": "uint256"
        }
      ],
      "name": "TransferSingle",
      "type": "event"
    },
    {
      "anonymous": false,
      "inputs": [
        {
          "indexed": false,
          "internalType": "string",
          "name": "value",
          "type": "string"
        },
        {
          "indexed": true,
          "internalType": "uint256",
          "name": "id",
          "type": "uint256"
        }
      ],
      "name": "URI",
      "type": "event"
    },
    {
      "anonymous": false,
      "inputs": [
        {
          "indexed": false,
          "internalType": "address",
          "name": "account",
          "type": "address"
        }
      ],
      "name": "Unpaused",
      "type": "event"
    },
    {
      "inputs": [],
      "name": "CKNFT_PRICE",
      "outputs": [
        {
          "internalType": "uint256",
          "name": "",
          "type": "uint256"
        }
      ],
      "stateMutability": "view",
      "type": "function"
    },
    {
      "inputs": [],
      "name": "MAX_MINT",
      "outputs": [
        {
          "internalType": "uint256",
          "name": "",
          "type": "uint256"
        }
      ],
      "stateMutability": "view",
      "type": "function"
    },
    {
      "inputs": [],
      "name": "MAX_TOKEN_ID_PLUS_ONE",
      "outputs": [
        {
          "internalType": "uint256",
          "name": "",
          "type": "uint256"
        }
      ],
      "stateMutability": "view",
      "type": "function"
    },
    {
      "inputs": [],
      "name": "MAX_WL_MINT",
      "outputs": [
        {
          "internalType": "uint256",
          "name": "",
          "type": "uint256"
        }
      ],
      "stateMutability": "view",
      "type": "function"
    },
    {
      "inputs": [],
      "name": "WL_TIMER",
      "outputs": [
        {
          "internalType": "uint256",
          "name": "",
          "type": "uint256"
        }
      ],
      "stateMutability": "view",
      "type": "function"
    },
    {
      "inputs": [
        {
          "internalType": "address",
          "name": "account",
          "type": "address"
        },
        {
          "internalType": "uint256",
          "name": "id",
          "type": "uint256"
        }
      ],
      "name": "balanceOf",
      "outputs": [
        {
          "internalType": "uint256",
          "name": "",
          "type": "uint256"
        }
      ],
      "stateMutability": "view",
      "type": "function"
    },
    {
      "inputs": [
        {
          "internalType": "address[]",
          "name": "accounts",
          "type": "address[]"
        },
        {
          "internalType": "uint256[]",
          "name": "ids",
          "type": "uint256[]"
        }
      ],
      "name": "balanceOfBatch",
      "outputs": [
        {
          "internalType": "uint256[]",
          "name": "",
          "type": "uint256[]"
        }
      ],
      "stateMutability": "view",
      "type": "function"
    },
    {
      "inputs": [],
      "name": "contractURI",
      "outputs": [
        {
          "internalType": "string",
          "name": "",
          "type": "string"
        }
      ],
      "stateMutability": "view",
      "type": "function"
    },
    {
      "inputs": [],
      "name": "contractUri",
      "outputs": [
        {
          "internalType": "string",
          "name": "",
          "type": "string"
        }
      ],
      "stateMutability": "view",
      "type": "function"
    },
    {
      "inputs": [
        {
          "internalType": "address",
          "name": "account",
          "type": "address"
        },
        {
          "internalType": "address",
          "name": "operator",
          "type": "address"
        }
      ],
      "name": "isApprovedForAll",
      "outputs": [
        {
          "internalType": "bool",
          "name": "",
          "type": "bool"
        }
      ],
      "stateMutability": "view",
      "type": "function"
    },
    {
      "inputs": [],
      "name": "isWhiteListActive",
      "outputs": [
        {
          "internalType": "bool",
          "name": "",
          "type": "bool"
        }
      ],
      "stateMutability": "view",
      "type": "function"
    },
    {
      "inputs": [],
      "name": "max_mint_wl",
      "outputs": [
        {
          "internalType": "uint256",
          "name": "",
          "type": "uint256"
        }
      ],
      "stateMutability": "view",
      "type": "function"
    },
    {
      "inputs": [
        {
          "internalType": "uint256",
          "name": "_id",
          "type": "uint256"
        },
        {
          "internalType": "uint256",
          "name": "_amount",
          "type": "uint256"
        }
      ],
      "name": "mint",
      "outputs": [],
      "stateMutability": "payable",
      "type": "function"
    },
    {
      "inputs": [
        {
          "internalType": "uint256[]",
          "name": "_ids",
          "type": "uint256[]"
        },
        {
          "internalType": "uint256[]",
          "name": "_amounts",
          "type": "uint256[]"
        }
      ],
      "name": "mintBatch",
      "outputs": [],
      "stateMutability": "payable",
      "type": "function"
    },
    {
      "inputs": [
        {
          "internalType": "address",
          "name": "",
          "type": "address"
        }
      ],
      "name": "mintPermit",
      "outputs": [
        {
          "internalType": "uint256",
          "name": "",
          "type": "uint256"
        }
      ],
      "stateMutability": "view",
      "type": "function"
    },
    {
      "inputs": [],
      "name": "name",
      "outputs": [
        {
          "internalType": "string",
          "name": "",
          "type": "string"
        }
      ],
      "stateMutability": "view",
      "type": "function"
    },
    {
      "inputs": [],
      "name": "owner",
      "outputs": [
        {
          "internalType": "address",
          "name": "",
          "type": "address"
        }
      ],
      "stateMutability": "view",
      "type": "function"
    },
    {
      "inputs": [
        {
          "internalType": "address",
          "name": "_to",
          "type": "address"
        },
        {
          "internalType": "uint256",
          "name": "_id",
          "type": "uint256"
        },
        {
          "internalType": "uint256",
          "name": "_amount",
          "type": "uint256"
        }
      ],
      "name": "ownerMint",
      "outputs": [],
      "stateMutability": "nonpayable",
      "type": "function"
    },
    {
      "inputs": [
        {
          "internalType": "uint256[]",
          "name": "_ids",
          "type": "uint256[]"
        },
        {
          "internalType": "uint256[]",
          "name": "_amounts",
          "type": "uint256[]"
        }
      ],
      "name": "ownerMintBatch",
      "outputs": [],
      "stateMutability": "nonpayable",
      "type": "function"
    },
    {
      "inputs": [],
      "name": "paused",
      "outputs": [
        {
          "internalType": "bool",
          "name": "",
          "type": "bool"
        }
      ],
      "stateMutability": "view",
      "type": "function"
    },
    {
      "inputs": [],
      "name": "renounceOwnership",
      "outputs": [],
      "stateMutability": "nonpayable",
      "type": "function"
    },
    {
      "inputs": [
        {
          "internalType": "address",
          "name": "from",
          "type": "address"
        },
        {
          "internalType": "address",
          "name": "to",
          "type": "address"
        },
        {
          "internalType": "uint256[]",
          "name": "ids",
          "type": "uint256[]"
        },
        {
          "internalType": "uint256[]",
          "name": "amounts",
          "type": "uint256[]"
        },
        {
          "internalType": "bytes",
          "name": "data",
          "type": "bytes"
        }
      ],
      "name": "safeBatchTransferFrom",
      "outputs": [],
      "stateMutability": "nonpayable",
      "type": "function"
    },
    {
      "inputs": [
        {
          "internalType": "address",
          "name": "from",
          "type": "address"
        },
        {
          "internalType": "address",
          "name": "to",
          "type": "address"
        },
        {
          "internalType": "uint256",
          "name": "id",
          "type": "uint256"
        },
        {
          "internalType": "uint256",
          "name": "amount",
          "type": "uint256"
        },
        {
          "internalType": "bytes",
          "name": "data",
          "type": "bytes"
        }
      ],
      "name": "safeTransferFrom",
      "outputs": [],
      "stateMutability": "nonpayable",
      "type": "function"
    },
    {
      "inputs": [
        {
          "internalType": "address",
          "name": "operator",
          "type": "address"
        },
        {
          "internalType": "bool",
          "name": "approved",
          "type": "bool"
        }
      ],
      "name": "setApprovalForAll",
      "outputs": [],
      "stateMutability": "nonpayable",
      "type": "function"
    },
    {
      "inputs": [
        {
          "internalType": "string",
          "name": "_newURI",
          "type": "string"
        }
      ],
      "name": "setContractURI",
      "outputs": [],
      "stateMutability": "nonpayable",
      "type": "function"
    },
    {
      "inputs": [
        {
          "internalType": "uint256",
          "name": "_max",
          "type": "uint256"
        }
      ],
      "name": "setMaxWLMint",
      "outputs": [],
      "stateMutability": "nonpayable",
      "type": "function"
    },
    {
      "inputs": [
        {
          "internalType": "bool",
          "name": "_paused",
          "type": "bool"
        }
      ],
      "name": "setPaused",
      "outputs": [],
      "stateMutability": "nonpayable",
      "type": "function"
    },
    {
      "inputs": [
        {
          "internalType": "bool",
          "name": "_wlEnd",
          "type": "bool"
        }
      ],
      "name": "setWhitelistActive",
      "outputs": [],
      "stateMutability": "nonpayable",
      "type": "function"
    },
    {
      "inputs": [
        {
          "internalType": "bytes4",
          "name": "interfaceId",
          "type": "bytes4"
        }
      ],
      "name": "supportsInterface",
      "outputs": [
        {
          "internalType": "bool",
          "name": "",
          "type": "bool"
        }
      ],
      "stateMutability": "view",
      "type": "function"
    },
    {
      "inputs": [],
      "name": "symbol",
      "outputs": [
        {
          "internalType": "string",
          "name": "",
          "type": "string"
        }
      ],
      "stateMutability": "view",
      "type": "function"
    },
    {
      "inputs": [
        {
          "internalType": "uint256",
          "name": "",
          "type": "uint256"
        }
      ],
      "name": "tokenIdToExistingSupply",
      "outputs": [
        {
          "internalType": "uint256",
          "name": "",
          "type": "uint256"
        }
      ],
      "stateMutability": "view",
      "type": "function"
    },
    {
      "inputs": [
        {
          "internalType": "uint256",
          "name": "",
          "type": "uint256"
        }
      ],
      "name": "tokenIdToMaxSupplyPlusOne",
      "outputs": [
        {
          "internalType": "uint256",
          "name": "",
          "type": "uint256"
        }
      ],
      "stateMutability": "view",
      "type": "function"
    },
    {
      "inputs": [
        {
          "internalType": "uint256",
          "name": "_id",
          "type": "uint256"
        }
      ],
      "name": "totalSupply",
      "outputs": [
        {
          "internalType": "uint256",
          "name": "",
          "type": "uint256"
        }
      ],
      "stateMutability": "view",
      "type": "function"
    },
    {
      "inputs": [
        {
          "internalType": "address",
          "name": "newOwner",
          "type": "address"
        }
      ],
      "name": "transferOwnership",
      "outputs": [],
      "stateMutability": "nonpayable",
      "type": "function"
    },
    {
      "inputs": [
        {
          "internalType": "uint256",
          "name": "",
          "type": "uint256"
        }
      ],
      "name": "uri",
      "outputs": [
        {
          "internalType": "string",
          "name": "",
          "type": "string"
        }
      ],
      "stateMutability": "view",
      "type": "function"
    },
    {
      "inputs": [
        {
          "internalType": "uint256",
          "name": "_id",
          "type": "uint256"
        },
        {
          "internalType": "uint256",
          "name": "_amount",
          "type": "uint256"
        }
      ],
      "name": "whiteListedMint",
      "outputs": [],
      "stateMutability": "payable",
      "type": "function"
    },
    {
      "inputs": [
        {
          "internalType": "address[]",
          "name": "_users",
          "type": "address[]"
        }
      ],
      "name": "whitelistUsers",
      "outputs": [],
      "stateMutability": "nonpayable",
      "type": "function"
    },
    {
      "inputs": [
        {
          "internalType": "address",
          "name": "",
          "type": "address"
        }
      ],
      "name": "whitelistedAddresses",
      "outputs": [
        {
          "internalType": "bool",
          "name": "",
          "type": "bool"
        }
      ],
      "stateMutability": "view",
      "type": "function"
    },
    {
      "inputs": [
        {
          "internalType": "address",
          "name": "",
          "type": "address"
        }
      ],
      "name": "whitelistedPermit",
      "outputs": [
        {
          "internalType": "uint256",
          "name": "",
          "type": "uint256"
        }
      ],
      "stateMutability": "view",
      "type": "function"
    },
    {
      "inputs": [],
      "name": "withdraw",
      "outputs": [],
      "stateMutability": "payable",
      "type": "function"
    }
  ],
  "bytecode": "0x60c0604052600d60808190526c434f4e54494e454e54204b455960981b60a090815262000030916004919062000732565b506040805180820190915260058082526410d2d3919560da1b60209092019182526200005d918162000732565b50601e60088190556009819055600a556010805461ffff191690553480156200008557600080fd5b506040518060800160405280605a815260200162003acd605a9139620000ab8162000247565b50620000b73362000260565b6003805460ff60a01b191690556040805160808101909152605080825262003a7d60208301398051620000f39160069160209091019062000732565b50600c602090815260647f13649b2456f1b42fef0f0040b3aaeabcd21a76a0f3f5defd4f583839455116e881905560016000527fd421a5181c571bba3f01190c922c3b2a896fc1d84e86c9f17ac10e67ebef8b5c556200015c90620019ea620002b2821b17901c565b60408051600280825260608201835260009260208301908036833750506040805160028082526060820183529394506000939092509060208301908036833701905050905060005b60028110156200021b5780838281518110620001c457620001c4620007d8565b6020026020010181815250506001828281518110620001e757620001e7620007d8565b6020908102919091018101919091526000828152600b9091526040902060019055620002138162000804565b9050620001a4565b506200023f338383604051806020016040528060008152506200036560201b60201c565b505062000ac9565b80516200025c90600290602084019062000732565b5050565b600380546001600160a01b038381166001600160a01b0319831681179093556040519116919082907f8be0079c531659141344cd1fd0a4f28419497f9722a3daafe3b4186f6b6457e090600090a35050565b620002c6600354600160a01b900460ff1690565b156200030c5760405162461bcd60e51b815260206004820152601060248201526f14185d5cd8589b194e881c185d5cd95960821b60448201526064015b60405180910390fd5b6003805460ff60a01b1916600160a01b1790557f62e78cea01bee320cd4e420270b5ea74000d11b0c9f74754ebdbfc544b05a258620003483390565b6040516001600160a01b03909116815260200160405180910390a1565b6001600160a01b038416620003c75760405162461bcd60e51b815260206004820152602160248201527f455243313135353a206d696e7420746f20746865207a65726f206164647265736044820152607360f81b606482015260840162000303565b81518351146200042b5760405162461bcd60e51b815260206004820152602860248201527f455243313135353a2069647320616e6420616d6f756e7473206c656e677468206044820152670dad2e6dac2e8c6d60c31b606482015260840162000303565b3360005b8451811015620004d3578381815181106200044e576200044e620007d8565b60200260200101516000808784815181106200046e576200046e620007d8565b602002602001015181526020019081526020016000206000886001600160a01b03166001600160a01b031681526020019081526020016000206000828254620004b8919062000820565b90915550819050620004ca8162000804565b9150506200042f565b50846001600160a01b031660006001600160a01b0316826001600160a01b03167f4a39dc06d4c0dbc64b70af90fd698a233a518aa5d07e595d983b8c0526c8f7fb87876040516200052692919062000878565b60405180910390a46200053f816000878787876200054e565b5050505050565b505050505050565b6200056d846001600160a01b03166200072360201b62001a8f1760201c565b15620005465760405163bc197c8160e01b81526001600160a01b0385169063bc197c8190620005a99089908990889088908890600401620008fa565b6020604051808303816000875af1925050508015620005e7575060408051601f3d908101601f19168201909252620005e4918101906200095e565b60015b620006a757620005f662000991565b806308c379a0036200063657506200060d620009e9565b806200061a575062000638565b8060405162461bcd60e51b815260040162000303919062000a78565b505b60405162461bcd60e51b815260206004820152603460248201527f455243313135353a207472616e7366657220746f206e6f6e204552433131353560448201527f526563656976657220696d706c656d656e746572000000000000000000000000606482015260840162000303565b6001600160e01b0319811663bc197c8160e01b146200071a5760405162461bcd60e51b815260206004820152602860248201527f455243313135353a204552433131353552656365697665722072656a656374656044820152676420746f6b656e7360c01b606482015260840162000303565b50505050505050565b6001600160a01b03163b151590565b828054620007409062000a8d565b90600052602060002090601f016020900481019282620007645760008555620007af565b82601f106200077f57805160ff1916838001178555620007af565b82800160010185558215620007af579182015b82811115620007af57825182559160200191906001019062000792565b50620007bd929150620007c1565b5090565b5b80821115620007bd5760008155600101620007c2565b634e487b7160e01b600052603260045260246000fd5b634e487b7160e01b600052601160045260246000fd5b600060018201620008195762000819620007ee565b5060010190565b60008219821115620008365762000836620007ee565b500190565b600081518084526020808501945080840160005b838110156200086d578151875295820195908201906001016200084f565b509495945050505050565b6040815260006200088d60408301856200083b565b8281036020840152620008a181856200083b565b95945050505050565b6000815180845260005b81811015620008d257602081850181015186830182015201620008b4565b81811115620008e5576000602083870101525b50601f01601f19169290920160200192915050565b6001600160a01b0386811682528516602082015260a06040820181905260009062000928908301866200083b565b82810360608401526200093c81866200083b565b90508281036080840152620009528185620008aa565b98975050505050505050565b6000602082840312156200097157600080fd5b81516001600160e01b0319811681146200098a57600080fd5b9392505050565b600060033d1115620009ab5760046000803e5060005160e01c5b90565b601f8201601f191681016001600160401b0381118282101715620009e257634e487b7160e01b600052604160045260246000fd5b6040525050565b600060443d1015620009f85790565b6040516003193d81016004833e81513d6001600160401b03808311602484018310171562000a2857505050505090565b828501915081518181111562000a415750505050505090565b843d870101602082850101111562000a5c5750505050505090565b62000a6d60208286010187620009ae565b509095945050505050565b6020815260006200098a6020830184620008aa565b600181811c9082168062000aa257607f821691505b60208210810362000ac357634e487b7160e01b600052602260045260246000fd5b50919050565b612fa48062000ad96000396000f3fe60806040526004361061023a5760003560e01c8063938e3d7b1161012e578063d901b2bc116100ab578063edec5f271161006f578063edec5f27146106ac578063f0292a03146106cc578063f242432a146106e2578063f2fde38b14610702578063fe8c72eb1461072257600080fd5b8063d901b2bc146105d4578063da8596ba146105f4578063db50c05714610621578063e8a3d4851461064e578063e985e9c51461066357600080fd5b8063b99eacd1116100f2578063b99eacd114610556578063bd85b0391461056c578063c0e24d5e1461058c578063c3b754dc146105a1578063d351cfdc146105c157600080fd5b8063938e3d7b146104be57806395d89b41146104de5780639fe88fa5146104f3578063a22cb46514610520578063a4968cc91461054057600080fd5b80632eb2c2d6116101bc578063573f5dae11610180578063573f5dae146104305780635c975abb1461044f578063715018a61461046e5780637cab0092146104835780638da5cb5b1461049657600080fd5b80632eb2c2d6146103a15780633867c76e146103c1578063388b9fe0146103db5780633ccfd60b146103fb5780634e1273f41461040357600080fd5b80630c468087116102035780630c4680871461030a5780630e89341c1461031f57806316c38b3c1461033f5780631b2ef1ca146103615780631b385b9d1461037457600080fd5b8062fdd58e1461023f5780630109c52e1461027257806301ffc9a71461028857806306c933d8146102b857806306fdde03146102e8575b600080fd5b34801561024b57600080fd5b5061025f61025a366004612436565b610742565b6040519081526020015b60405180910390f35b34801561027e57600080fd5b5061025f600a5481565b34801561029457600080fd5b506102a86102a3366004612476565b6107d9565b6040519015158152602001610269565b3480156102c457600080fd5b506102a86102d336600461249a565b600d6020526000908152604090205460ff1681565b3480156102f457600080fd5b506102fd61082b565b6040516102699190612502565b34801561031657600080fd5b5061025f600281565b34801561032b57600080fd5b506102fd61033a366004612515565b6108b9565b34801561034b57600080fd5b5061035f61035a36600461253e565b61094d565b005b61035f61036f366004612559565b610990565b34801561038057600080fd5b5061025f61038f36600461249a565b600f6020526000908152604090205481565b3480156103ad57600080fd5b5061035f6103bc3660046126c7565b610bc0565b3480156103cd57600080fd5b5061025f655af3107a400081565b3480156103e757600080fd5b5061035f6103f6366004612771565b610c57565b61035f610d1a565b34801561040f57600080fd5b5061042361041e3660046127a4565b610df1565b60405161026991906128aa565b34801561043c57600080fd5b506010546102a890610100900460ff1681565b34801561045b57600080fd5b50600354600160a01b900460ff166102a8565b34801561047a57600080fd5b5061035f610f1b565b61035f610491366004612559565b610f51565b3480156104a257600080fd5b506003546040516001600160a01b039091168152602001610269565b3480156104ca57600080fd5b5061035f6104d93660046128bd565b6112c5565b3480156104ea57600080fd5b506102fd6112fb565b3480156104ff57600080fd5b5061025f61050e366004612515565b600c6020526000908152604090205481565b34801561052c57600080fd5b5061035f61053b36600461292f565b611308565b34801561054c57600080fd5b5061025f60095481565b34801561056257600080fd5b5061025f60075481565b34801561057857600080fd5b5061025f610587366004612515565b611317565b34801561059857600080fd5b506102fd61134c565b3480156105ad57600080fd5b5061035f6105bc36600461253e565b611359565b61035f6105cf3660046129ae565b6113ac565b3480156105e057600080fd5b5061035f6105ef3660046129ae565b6115b9565b34801561060057600080fd5b5061025f61060f366004612515565b600b6020526000908152604090205481565b34801561062d57600080fd5b5061025f61063c36600461249a565b600e6020526000908152604090205481565b34801561065a57600080fd5b506102fd61176e565b34801561066f57600080fd5b506102a861067e366004612a1a565b6001600160a01b03918216600090815260016020908152604080832093909416825291909152205460ff1690565b3480156106b857600080fd5b5061035f6106c7366004612a44565b611800565b3480156106d857600080fd5b5061025f60085481565b3480156106ee57600080fd5b5061035f6106fd366004612a86565b61189c565b34801561070e57600080fd5b5061035f61071d36600461249a565b611923565b34801561072e57600080fd5b5061035f61073d366004612515565b6119bb565b60006001600160a01b0383166107b35760405162461bcd60e51b815260206004820152602b60248201527f455243313135353a2062616c616e636520717565727920666f7220746865207a60448201526a65726f206164647265737360a81b60648201526084015b60405180910390fd5b506000908152602081815260408083206001600160a01b03949094168352929052205490565b60006001600160e01b03198216636cdb3d1360e11b148061080a57506001600160e01b031982166303a24d0760e21b145b8061082557506301ffc9a760e01b6001600160e01b03198316145b92915050565b6004805461083890612aeb565b80601f016020809104026020016040519081016040528092919081815260200182805461086490612aeb565b80156108b15780601f10610886576101008083540402835291602001916108b1565b820191906000526020600020905b81548152906001019060200180831161089457829003601f168201915b505050505081565b6060600280546108c890612aeb565b80601f01602080910402602001604051908101604052809291908181526020018280546108f490612aeb565b80156109415780601f1061091657610100808354040283529160200191610941565b820191906000526020600020905b81548152906001019060200180831161092457829003601f168201915b50505050509050919050565b6003546001600160a01b031633146109775760405162461bcd60e51b81526004016107aa90612b25565b8015610988576109856119ea565b50565b610985611a9e565b6007546000036109e25760405162461bcd60e51b815260206004820152601960248201527f77686974656c69737420686173206e6f7420737461727465640000000000000060448201526064016107aa565b4260075410610a335760405162461bcd60e51b815260206004820152601860248201527f77686974656c69737420686173206e6f742066696e697368000000000000000060448201526064016107aa565b60028210610a535760405162461bcd60e51b81526004016107aa90612b5a565b600854336000908152600f6020526040902054610a71908390612b98565b1115610abf5760405162461bcd60e51b815260206004820152601960248201527f4f6e6c79203330204e66747320627920616464726573732e200000000000000060448201526064016107aa565b6000828152600b6020908152604080832054600c90925290912054610ae48383612b98565b10610b015760405162461bcd60e51b81526004016107aa90612bb0565b610b11655af3107a400083612bd9565b3414610b2f5760405162461bcd60e51b81526004016107aa90612bf8565b333214610b4e5760405162461bcd60e51b81526004016107aa90612c1f565b6000838152600b60205260408120918301918290555b82811015610b9f57336000908152600f60205260408120805491610b8783612c4b565b91905055508080610b9790612c4b565b915050610b64565b50610bbb33848460405180602001604052806000815250611b22565b505050565b6001600160a01b038516331480610bdc5750610bdc853361067e565b610c435760405162461bcd60e51b815260206004820152603260248201527f455243313135353a207472616e736665722063616c6c6572206973206e6f74206044820152711bdddb995c881b9bdc88185c1c1c9bdd995960721b60648201526084016107aa565b610c508585858585611bf2565b5050505050565b6003546001600160a01b03163314610c815760405162461bcd60e51b81526004016107aa90612b25565b60028210610ca15760405162461bcd60e51b81526004016107aa90612b5a565b6000828152600b6020908152604080832054600c90925290912054610cc68383612b98565b10610ce35760405162461bcd60e51b81526004016107aa90612bb0565b6000838152600b602090815260408083209385019384905580519182019052908152610d1490859085908590611b22565b50505050565b6003546001600160a01b03163314610d445760405162461bcd60e51b81526004016107aa90612b25565b6000610d586003546001600160a01b031690565b6001600160a01b03164760405160006040518083038185875af1925050503d8060008114610da2576040519150601f19603f3d011682016040523d82523d6000602084013e610da7565b606091505b50509050806109855760405162461bcd60e51b81526020600482015260166024820152750ccc2d2d8cac840e8de40eed2e8d0c8e4c2ee408aa8960531b60448201526064016107aa565b60608151835114610e565760405162461bcd60e51b815260206004820152602960248201527f455243313135353a206163636f756e747320616e6420696473206c656e677468604482015268040dad2e6dac2e8c6d60bb1b60648201526084016107aa565b6000835167ffffffffffffffff811115610e7257610e7261257b565b604051908082528060200260200182016040528015610e9b578160200160208202803683370190505b50905060005b8451811015610f1357610ee6858281518110610ebf57610ebf612c64565b6020026020010151858381518110610ed957610ed9612c64565b6020026020010151610742565b828281518110610ef857610ef8612c64565b6020908102919091010152610f0c81612c4b565b9050610ea1565b509392505050565b6003546001600160a01b03163314610f455760405162461bcd60e51b81526004016107aa90612b25565b610f4f6000611d86565b565b60105460ff1615610f945760405162461bcd60e51b815260206004820152600d60248201526c4e6f207265656e7472616e637960981b60448201526064016107aa565b6010805460ff191660011790819055610100900460ff16610ff75760405162461bcd60e51b815260206004820152601760248201527f77686974656c697374206973206e6f742061637469766500000000000000000060448201526064016107aa565b426007541161103e5760405162461bcd60e51b81526020600482015260136024820152720eed0d2e8cad8d2e6e840d2e640ccd2dcd2e6d606b1b60448201526064016107aa565b336000908152600d602052604090205460ff1615156001146110a25760405162461bcd60e51b815260206004820152601760248201527f596f752772206e6f742077686974656c6973746564202100000000000000000060448201526064016107aa565b600a54336000908152600e60205260409020546110c0908390612b98565b111561111a5760405162461bcd60e51b8152602060048201526024808201527f4f6e6c79203330204e6674732062792077686974656c6973746564206164647260448201526332b9b99760e11b60648201526084016107aa565b6002821061113a5760405162461bcd60e51b81526004016107aa90612b5a565b6000828152600b6020526040902054603c90611157908390612b98565b11156111995760405162461bcd60e51b8152602060048201526011602482015270105b1b081d1bdad95b9cc81b5a5b9d1959607a1b60448201526064016107aa565b6000811180156111ab57506009548111155b6111ed5760405162461bcd60e51b8152602060048201526013602482015272125b9d985b1a59081b5a5b9d08185b5bdd5b9d606a1b60448201526064016107aa565b6000828152600b602052604090205461120c655af3107a400083612bd9565b341461122a5760405162461bcd60e51b81526004016107aa90612bf8565b3332146112495760405162461bcd60e51b81526004016107aa90612c1f565b6000838152600b60205260408120918301918290555b8281101561129a57336000908152600e6020526040812080549161128283612c4b565b9190505550808061129290612c4b565b91505061125f565b506112b633848460405180602001604052806000815250611b22565b50506010805460ff1916905550565b6003546001600160a01b031633146112ef5760405162461bcd60e51b81526004016107aa90612b25565b610bbb60068383612381565b6005805461083890612aeb565b611313338383611dd8565b5050565b6000600282106113395760405162461bcd60e51b81526004016107aa90612b5a565b506000908152600b602052604090205490565b6006805461083890612aeb565b6003546001600160a01b031633146113835760405162461bcd60e51b81526004016107aa90612b25565b61138f4261012c612b98565b600755601080549115156101000261ff0019909216919091179055565b600354600160a01b900460ff16156113f95760405162461bcd60e51b815260206004820152601060248201526f14185d5cd8589b194e881c185d5cd95960821b60448201526064016107aa565b600083815b8181101561143c5784848281811061141857611418612c64565b905060200201358361142a9190612b98565b925061143581612c4b565b90506113fe565b5061144d655af3107a400083612bd9565b341461146b5760405162461bcd60e51b81526004016107aa90612bf8565b60005b8181101561153457600087878381811061148a5761148a612c64565b90506020020135905060008686848181106114a7576114a7612c64565b6000858152600b6020908152604080832054600c835292205492029390930135935090506114d58383612b98565b106114f25760405162461bcd60e51b81526004016107aa90612bb0565b3332146115115760405162461bcd60e51b81526004016107aa90612c1f565b6000928352600b60205260409092209101905561152d81612c4b565b905061146e565b506115b13387878080602002602001604051908101604052809392919081815260200183836020028082843760009201919091525050604080516020808b0282810182019093528a82529093508a925089918291850190849080828437600092018290525060408051602081019091529081529250611eb8915050565b505050505050565b6003546001600160a01b031633146115e35760405162461bcd60e51b81526004016107aa90612b25565b8260005b818110156116f1576000600b600088888581811061160757611607612c64565b905060200201358152602001908152602001600020549050600087878481811061163357611633612c64565b905060200201359050600086868581811061165057611650612c64565b905060200201359050600282106116795760405162461bcd60e51b81526004016107aa90612b5a565b6000828152600c60205260409020546116928285612b98565b106116af5760405162461bcd60e51b81526004016107aa90612bb0565b3332146116ce5760405162461bcd60e51b81526004016107aa90612c1f565b6000918252600b6020526040909120910190556116ea81612c4b565b90506115e7565b50610c503386868080602002602001604051908101604052809392919081815260200183836020028082843760009201919091525050604080516020808a02828101820190935289825290935089925088918291850190849080828437600092018290525060408051602081019091529081529250611eb8915050565b60606006805461177d90612aeb565b80601f01602080910402602001604051908101604052809291908181526020018280546117a990612aeb565b80156117f65780601f106117cb576101008083540402835291602001916117f6565b820191906000526020600020905b8154815290600101906020018083116117d957829003601f168201915b5050505050905090565b6003546001600160a01b0316331461182a5760405162461bcd60e51b81526004016107aa90612b25565b60005b81811015610bbb576001600d600085858581811061184d5761184d612c64565b9050602002016020810190611862919061249a565b6001600160a01b031681526020810191909152604001600020805460ff19169115159190911790558061189481612c4b565b91505061182d565b6001600160a01b0385163314806118b857506118b8853361067e565b6119165760405162461bcd60e51b815260206004820152602960248201527f455243313135353a2063616c6c6572206973206e6f74206f776e6572206e6f7260448201526808185c1c1c9bdd995960ba1b60648201526084016107aa565b610c508585858585612003565b6003546001600160a01b0316331461194d5760405162461bcd60e51b81526004016107aa90612b25565b6001600160a01b0381166119b25760405162461bcd60e51b815260206004820152602660248201527f4f776e61626c653a206e6577206f776e657220697320746865207a65726f206160448201526564647265737360d01b60648201526084016107aa565b61098581611d86565b6003546001600160a01b031633146119e55760405162461bcd60e51b81526004016107aa90612b25565b600a55565b600354600160a01b900460ff1615611a375760405162461bcd60e51b815260206004820152601060248201526f14185d5cd8589b194e881c185d5cd95960821b60448201526064016107aa565b6003805460ff60a01b1916600160a01b1790557f62e78cea01bee320cd4e420270b5ea74000d11b0c9f74754ebdbfc544b05a258611a723390565b6040516001600160a01b03909116815260200160405180910390a1565b6001600160a01b03163b151590565b600354600160a01b900460ff16611aee5760405162461bcd60e51b815260206004820152601460248201527314185d5cd8589b194e881b9bdd081c185d5cd95960621b60448201526064016107aa565b6003805460ff60a01b191690557f5db9ee0a495bf2e6ff9c91a7834c1ba4fdd244a5e8aa4e537bd38aeae4b073aa33611a72565b6001600160a01b038416611b485760405162461bcd60e51b81526004016107aa90612c7a565b33611b6281600087611b5988612120565b610c5088612120565b6000848152602081815260408083206001600160a01b038916845290915281208054859290611b92908490612b98565b909155505060408051858152602081018590526001600160a01b0380881692600092918516917fc3d58168c5ae7397731d063d5bbf3d657854427343f4c083240f7aacaa2d0f62910160405180910390a4610c508160008787878761216b565b8151835114611c135760405162461bcd60e51b81526004016107aa90612cbb565b6001600160a01b038416611c395760405162461bcd60e51b81526004016107aa90612d03565b3360005b8451811015611d20576000858281518110611c5a57611c5a612c64565b602002602001015190506000858381518110611c7857611c78612c64565b602090810291909101810151600084815280835260408082206001600160a01b038e168352909352919091205490915081811015611cc85760405162461bcd60e51b81526004016107aa90612d48565b6000838152602081815260408083206001600160a01b038e8116855292528083208585039055908b16825281208054849290611d05908490612b98565b9250508190555050505080611d1990612c4b565b9050611c3d565b50846001600160a01b0316866001600160a01b0316826001600160a01b03167f4a39dc06d4c0dbc64b70af90fd698a233a518aa5d07e595d983b8c0526c8f7fb8787604051611d70929190612d92565b60405180910390a46115b18187878787876122c6565b600380546001600160a01b038381166001600160a01b0319831681179093556040519116919082907f8be0079c531659141344cd1fd0a4f28419497f9722a3daafe3b4186f6b6457e090600090a35050565b816001600160a01b0316836001600160a01b031603611e4b5760405162461bcd60e51b815260206004820152602960248201527f455243313135353a2073657474696e6720617070726f76616c20737461747573604482015268103337b91039b2b63360b91b60648201526084016107aa565b6001600160a01b03838116600081815260016020908152604080832094871680845294825291829020805460ff191686151590811790915591519182527f17307eab39ab6107e8899845ad3d59bd9653f200f220920489ca2b5937696c31910160405180910390a3505050565b6001600160a01b038416611ede5760405162461bcd60e51b81526004016107aa90612c7a565b8151835114611eff5760405162461bcd60e51b81526004016107aa90612cbb565b3360005b8451811015611f9b57838181518110611f1e57611f1e612c64565b6020026020010151600080878481518110611f3b57611f3b612c64565b602002602001015181526020019081526020016000206000886001600160a01b03166001600160a01b031681526020019081526020016000206000828254611f839190612b98565b90915550819050611f9381612c4b565b915050611f03565b50846001600160a01b031660006001600160a01b0316826001600160a01b03167f4a39dc06d4c0dbc64b70af90fd698a233a518aa5d07e595d983b8c0526c8f7fb8787604051611fec929190612d92565b60405180910390a4610c50816000878787876122c6565b6001600160a01b0384166120295760405162461bcd60e51b81526004016107aa90612d03565b33612039818787611b5988612120565b6000848152602081815260408083206001600160a01b038a1684529091529020548381101561207a5760405162461bcd60e51b81526004016107aa90612d48565b6000858152602081815260408083206001600160a01b038b81168552925280832087850390559088168252812080548692906120b7908490612b98565b909155505060408051868152602081018690526001600160a01b03808916928a821692918616917fc3d58168c5ae7397731d063d5bbf3d657854427343f4c083240f7aacaa2d0f62910160405180910390a461211782888888888861216b565b50505050505050565b6040805160018082528183019092526060916000919060208083019080368337019050509050828160008151811061215a5761215a612c64565b602090810291909101015292915050565b6001600160a01b0384163b156115b15760405163f23a6e6160e01b81526001600160a01b0385169063f23a6e61906121af9089908990889088908890600401612dc0565b6020604051808303816000875af19250505080156121ea575060408051601f3d908101601f191682019092526121e791810190612e05565b60015b612296576121f6612e22565b806308c379a00361222f575061220a612e3e565b806122155750612231565b8060405162461bcd60e51b81526004016107aa9190612502565b505b60405162461bcd60e51b815260206004820152603460248201527f455243313135353a207472616e7366657220746f206e6f6e20455243313135356044820152732932b1b2b4bb32b91034b6b83632b6b2b73a32b960611b60648201526084016107aa565b6001600160e01b0319811663f23a6e6160e01b146121175760405162461bcd60e51b81526004016107aa90612ec8565b6001600160a01b0384163b156115b15760405163bc197c8160e01b81526001600160a01b0385169063bc197c819061230a9089908990889088908890600401612f10565b6020604051808303816000875af1925050508015612345575060408051601f3d908101601f1916820190925261234291810190612e05565b60015b612351576121f6612e22565b6001600160e01b0319811663bc197c8160e01b146121175760405162461bcd60e51b81526004016107aa90612ec8565b82805461238d90612aeb565b90600052602060002090601f0160209004810192826123af57600085556123f5565b82601f106123c85782800160ff198235161785556123f5565b828001600101855582156123f5579182015b828111156123f55782358255916020019190600101906123da565b50612401929150612405565b5090565b5b808211156124015760008155600101612406565b80356001600160a01b038116811461243157600080fd5b919050565b6000806040838503121561244957600080fd5b6124528361241a565b946020939093013593505050565b6001600160e01b03198116811461098557600080fd5b60006020828403121561248857600080fd5b813561249381612460565b9392505050565b6000602082840312156124ac57600080fd5b6124938261241a565b6000815180845260005b818110156124db576020818501810151868301820152016124bf565b818111156124ed576000602083870101525b50601f01601f19169290920160200192915050565b60208152600061249360208301846124b5565b60006020828403121561252757600080fd5b5035919050565b8035801515811461243157600080fd5b60006020828403121561255057600080fd5b6124938261252e565b6000806040838503121561256c57600080fd5b50508035926020909101359150565b634e487b7160e01b600052604160045260246000fd5b601f8201601f1916810167ffffffffffffffff811182821017156125b7576125b761257b565b6040525050565b600067ffffffffffffffff8211156125d8576125d861257b565b5060051b60200190565b600082601f8301126125f357600080fd5b81356020612600826125be565b60405161260d8282612591565b83815260059390931b850182019282810191508684111561262d57600080fd5b8286015b848110156126485780358352918301918301612631565b509695505050505050565b600082601f83011261266457600080fd5b813567ffffffffffffffff81111561267e5761267e61257b565b604051612695601f8301601f191660200182612591565b8181528460208386010111156126aa57600080fd5b816020850160208301376000918101602001919091529392505050565b600080600080600060a086880312156126df57600080fd5b6126e88661241a565b94506126f66020870161241a565b9350604086013567ffffffffffffffff8082111561271357600080fd5b61271f89838a016125e2565b9450606088013591508082111561273557600080fd5b61274189838a016125e2565b9350608088013591508082111561275757600080fd5b5061276488828901612653565b9150509295509295909350565b60008060006060848603121561278657600080fd5b61278f8461241a565b95602085013595506040909401359392505050565b600080604083850312156127b757600080fd5b823567ffffffffffffffff808211156127cf57600080fd5b818501915085601f8301126127e357600080fd5b813560206127f0826125be565b6040516127fd8282612591565b83815260059390931b850182019282810191508984111561281d57600080fd5b948201945b83861015612842576128338661241a565b82529482019490820190612822565b9650508601359250508082111561285857600080fd5b50612865858286016125e2565b9150509250929050565b600081518084526020808501945080840160005b8381101561289f57815187529582019590820190600101612883565b509495945050505050565b602081526000612493602083018461286f565b600080602083850312156128d057600080fd5b823567ffffffffffffffff808211156128e857600080fd5b818501915085601f8301126128fc57600080fd5b81358181111561290b57600080fd5b86602082850101111561291d57600080fd5b60209290920196919550909350505050565b6000806040838503121561294257600080fd5b61294b8361241a565b91506129596020840161252e565b90509250929050565b60008083601f84011261297457600080fd5b50813567ffffffffffffffff81111561298c57600080fd5b6020830191508360208260051b85010111156129a757600080fd5b9250929050565b600080600080604085870312156129c457600080fd5b843567ffffffffffffffff808211156129dc57600080fd5b6129e888838901612962565b90965094506020870135915080821115612a0157600080fd5b50612a0e87828801612962565b95989497509550505050565b60008060408385031215612a2d57600080fd5b612a368361241a565b91506129596020840161241a565b60008060208385031215612a5757600080fd5b823567ffffffffffffffff811115612a6e57600080fd5b612a7a85828601612962565b90969095509350505050565b600080600080600060a08688031215612a9e57600080fd5b612aa78661241a565b9450612ab56020870161241a565b93506040860135925060608601359150608086013567ffffffffffffffff811115612adf57600080fd5b61276488828901612653565b600181811c90821680612aff57607f821691505b602082108103612b1f57634e487b7160e01b600052602260045260246000fd5b50919050565b6020808252818101527f4f776e61626c653a2063616c6c6572206973206e6f7420746865206f776e6572604082015260600190565b6020808252600e908201526d34b21036bab9ba103132901e101960911b604082015260600190565b634e487b7160e01b600052601160045260246000fd5b60008219821115612bab57612bab612b82565b500190565b6020808252600f908201526e1cdd5c1c1b1e48195e18d959591959608a1b604082015260600190565b6000816000190483118215151615612bf357612bf3612b82565b500290565b6020808252600d908201526c0d2dcc6dee4e4cac6e8408aa89609b1b604082015260600190565b6020808252601290820152716e6f20736d61727420636f6e74726163747360701b604082015260600190565b600060018201612c5d57612c5d612b82565b5060010190565b634e487b7160e01b600052603260045260246000fd5b60208082526021908201527f455243313135353a206d696e7420746f20746865207a65726f206164647265736040820152607360f81b606082015260800190565b60208082526028908201527f455243313135353a2069647320616e6420616d6f756e7473206c656e677468206040820152670dad2e6dac2e8c6d60c31b606082015260800190565b60208082526025908201527f455243313135353a207472616e7366657220746f20746865207a65726f206164604082015264647265737360d81b606082015260800190565b6020808252602a908201527f455243313135353a20696e73756666696369656e742062616c616e636520666f60408201526939103a3930b739b332b960b11b606082015260800190565b604081526000612da5604083018561286f565b8281036020840152612db7818561286f565b95945050505050565b6001600160a01b03868116825285166020820152604081018490526060810183905260a060808201819052600090612dfa908301846124b5565b979650505050505050565b600060208284031215612e1757600080fd5b815161249381612460565b600060033d1115612e3b5760046000803e5060005160e01c5b90565b600060443d1015612e4c5790565b6040516003193d81016004833e81513d67ffffffffffffffff8160248401118184111715612e7c57505050505090565b8285019150815181811115612e945750505050505090565b843d8701016020828501011115612eae5750505050505090565b612ebd60208286010187612591565b509095945050505050565b60208082526028908201527f455243313135353a204552433131353552656365697665722072656a656374656040820152676420746f6b656e7360c01b606082015260800190565b6001600160a01b0386811682528516602082015260a060408201819052600090612f3c9083018661286f565b8281036060840152612f4e818661286f565b90508281036080840152612f6281856124b5565b9897505050505050505056fea2646970667358221220e2d69929ba5f3e896fee666ed1985409fb1f9e5040df5e6fd5f0048d79a3ffd964736f6c634300080e003368747470733a2f2f676174657761792e70696e6174612e636c6f75642f697066732f516d5269344d387744787677694d5737525663623731787961546465665a754b3356446a7554694155775946614e68747470733a2f2f676174657761792e70696e6174612e636c6f75642f697066732f516d5a613757754e444e313242784c537872416650584b54366545767474726f587861437858706a6952547768772f7b69647d2e6a736f6e",
  "linkReferences": {},
  "deployedLinkReferences": {}
}