{
  "_format": "hh-sol-artifact-1",
  "contractName": "CKNFT",
  "sourceName": "solidity/contracts/CKNFT.sol",
  "abi": [
    {
      "inputs": [],
      "stateMutability": "nonpayable",
      "type": "constructor"
    },
    {
      "anonymous": false,
      "inputs": [
        {
          "indexed": true,
          "internalType": "address",
          "name": "account",
          "type": "address"
        },
        {
          "indexed": true,
          "internalType": "address",
          "name": "operator",
          "type": "address"
        },
        {
          "indexed": false,
          "internalType": "bool",
          "name": "approved",
          "type": "bool"
        }
      ],
      "name": "ApprovalForAll",
      "type": "event"
    },
    {
      "anonymous": false,
      "inputs": [
        {
          "indexed": true,
          "internalType": "address",
          "name": "previousOwner",
          "type": "address"
        },
        {
          "indexed": true,
          "internalType": "address",
          "name": "newOwner",
          "type": "address"
        }
      ],
      "name": "OwnershipTransferred",
      "type": "event"
    },
    {
      "anonymous": false,
      "inputs": [
        {
          "indexed": false,
          "internalType": "address",
          "name": "account",
          "type": "address"
        }
      ],
      "name": "Paused",
      "type": "event"
    },
    {
      "anonymous": false,
      "inputs": [
        {
          "indexed": true,
          "internalType": "address",
          "name": "operator",
          "type": "address"
        },
        {
          "indexed": true,
          "internalType": "address",
          "name": "from",
          "type": "address"
        },
        {
          "indexed": true,
          "internalType": "address",
          "name": "to",
          "type": "address"
        },
        {
          "indexed": false,
          "internalType": "uint256[]",
          "name": "ids",
          "type": "uint256[]"
        },
        {
          "indexed": false,
          "internalType": "uint256[]",
          "name": "values",
          "type": "uint256[]"
        }
      ],
      "name": "TransferBatch",
      "type": "event"
    },
    {
      "anonymous": false,
      "inputs": [
        {
          "indexed": true,
          "internalType": "address",
          "name": "operator",
          "type": "address"
        },
        {
          "indexed": true,
          "internalType": "address",
          "name": "from",
          "type": "address"
        },
        {
          "indexed": true,
          "internalType": "address",
          "name": "to",
          "type": "address"
        },
        {
          "indexed": false,
          "internalType": "uint256",
          "name": "id",
          "type": "uint256"
        },
        {
          "indexed": false,
          "internalType": "uint256",
          "name": "value",
          "type": "uint256"
        }
      ],
      "name": "TransferSingle",
      "type": "event"
    },
    {
      "anonymous": false,
      "inputs": [
        {
          "indexed": false,
          "internalType": "string",
          "name": "value",
          "type": "string"
        },
        {
          "indexed": true,
          "internalType": "uint256",
          "name": "id",
          "type": "uint256"
        }
      ],
      "name": "URI",
      "type": "event"
    },
    {
      "anonymous": false,
      "inputs": [
        {
          "indexed": false,
          "internalType": "address",
          "name": "account",
          "type": "address"
        }
      ],
      "name": "Unpaused",
      "type": "event"
    },
    {
      "inputs": [],
      "name": "CKNFT_PRICE",
      "outputs": [
        {
          "internalType": "uint256",
          "name": "",
          "type": "uint256"
        }
      ],
      "stateMutability": "view",
      "type": "function"
    },
    {
      "inputs": [],
      "name": "MAX_MINT",
      "outputs": [
        {
          "internalType": "uint256",
          "name": "",
          "type": "uint256"
        }
      ],
      "stateMutability": "view",
      "type": "function"
    },
    {
      "inputs": [],
      "name": "MAX_TOKEN_ID_PLUS_ONE",
      "outputs": [
        {
          "internalType": "uint256",
          "name": "",
          "type": "uint256"
        }
      ],
      "stateMutability": "view",
      "type": "function"
    },
    {
      "inputs": [],
      "name": "MAX_WL_MINT",
      "outputs": [
        {
          "internalType": "uint256",
          "name": "",
          "type": "uint256"
        }
      ],
      "stateMutability": "view",
      "type": "function"
    },
    {
      "inputs": [],
      "name": "WL_TIMER",
      "outputs": [
        {
          "internalType": "uint256",
          "name": "",
          "type": "uint256"
        }
      ],
      "stateMutability": "view",
      "type": "function"
    },
    {
      "inputs": [
        {
          "internalType": "address",
          "name": "account",
          "type": "address"
        },
        {
          "internalType": "uint256",
          "name": "id",
          "type": "uint256"
        }
      ],
      "name": "balanceOf",
      "outputs": [
        {
          "internalType": "uint256",
          "name": "",
          "type": "uint256"
        }
      ],
      "stateMutability": "view",
      "type": "function"
    },
    {
      "inputs": [
        {
          "internalType": "address[]",
          "name": "accounts",
          "type": "address[]"
        },
        {
          "internalType": "uint256[]",
          "name": "ids",
          "type": "uint256[]"
        }
      ],
      "name": "balanceOfBatch",
      "outputs": [
        {
          "internalType": "uint256[]",
          "name": "",
          "type": "uint256[]"
        }
      ],
      "stateMutability": "view",
      "type": "function"
    },
    {
      "inputs": [],
      "name": "contractURI",
      "outputs": [
        {
          "internalType": "string",
          "name": "",
          "type": "string"
        }
      ],
      "stateMutability": "view",
      "type": "function"
    },
    {
      "inputs": [],
      "name": "contractUri",
      "outputs": [
        {
          "internalType": "string",
          "name": "",
          "type": "string"
        }
      ],
      "stateMutability": "view",
      "type": "function"
    },
    {
      "inputs": [
        {
          "internalType": "address",
          "name": "account",
          "type": "address"
        },
        {
          "internalType": "address",
          "name": "operator",
          "type": "address"
        }
      ],
      "name": "isApprovedForAll",
      "outputs": [
        {
          "internalType": "bool",
          "name": "",
          "type": "bool"
        }
      ],
      "stateMutability": "view",
      "type": "function"
    },
    {
      "inputs": [],
      "name": "isWhiteListActive",
      "outputs": [
        {
          "internalType": "bool",
          "name": "",
          "type": "bool"
        }
      ],
      "stateMutability": "view",
      "type": "function"
    },
    {
      "inputs": [],
      "name": "max_mint_wl",
      "outputs": [
        {
          "internalType": "uint256",
          "name": "",
          "type": "uint256"
        }
      ],
      "stateMutability": "view",
      "type": "function"
    },
    {
      "inputs": [
        {
          "internalType": "uint256",
          "name": "_id",
          "type": "uint256"
        },
        {
          "internalType": "uint256",
          "name": "_amount",
          "type": "uint256"
        }
      ],
      "name": "mint",
      "outputs": [],
      "stateMutability": "payable",
      "type": "function"
    },
    {
      "inputs": [
        {
          "internalType": "uint256[]",
          "name": "_ids",
          "type": "uint256[]"
        },
        {
          "internalType": "uint256[]",
          "name": "_amounts",
          "type": "uint256[]"
        }
      ],
      "name": "mintBatch",
      "outputs": [],
      "stateMutability": "payable",
      "type": "function"
    },
    {
      "inputs": [
        {
          "internalType": "address",
          "name": "",
          "type": "address"
        }
      ],
      "name": "mintPermit",
      "outputs": [
        {
          "internalType": "uint256",
          "name": "",
          "type": "uint256"
        }
      ],
      "stateMutability": "view",
      "type": "function"
    },
    {
      "inputs": [],
      "name": "minted",
      "outputs": [
        {
          "internalType": "uint16",
          "name": "",
          "type": "uint16"
        }
      ],
      "stateMutability": "view",
      "type": "function"
    },
    {
      "inputs": [],
      "name": "name",
      "outputs": [
        {
          "internalType": "string",
          "name": "",
          "type": "string"
        }
      ],
      "stateMutability": "view",
      "type": "function"
    },
    {
      "inputs": [],
      "name": "owner",
      "outputs": [
        {
          "internalType": "address",
          "name": "",
          "type": "address"
        }
      ],
      "stateMutability": "view",
      "type": "function"
    },
    {
      "inputs": [
        {
          "internalType": "address",
          "name": "_to",
          "type": "address"
        },
        {
          "internalType": "uint256",
          "name": "_id",
          "type": "uint256"
        },
        {
          "internalType": "uint256",
          "name": "_amount",
          "type": "uint256"
        }
      ],
      "name": "ownerMint",
      "outputs": [],
      "stateMutability": "nonpayable",
      "type": "function"
    },
    {
      "inputs": [
        {
          "internalType": "uint256[]",
          "name": "_ids",
          "type": "uint256[]"
        },
        {
          "internalType": "uint256[]",
          "name": "_amounts",
          "type": "uint256[]"
        }
      ],
      "name": "ownerMintBatch",
      "outputs": [],
      "stateMutability": "nonpayable",
      "type": "function"
    },
    {
      "inputs": [],
      "name": "paused",
      "outputs": [
        {
          "internalType": "bool",
          "name": "",
          "type": "bool"
        }
      ],
      "stateMutability": "view",
      "type": "function"
    },
    {
      "inputs": [],
      "name": "renounceOwnership",
      "outputs": [],
      "stateMutability": "nonpayable",
      "type": "function"
    },
    {
      "inputs": [
        {
          "internalType": "address",
          "name": "from",
          "type": "address"
        },
        {
          "internalType": "address",
          "name": "to",
          "type": "address"
        },
        {
          "internalType": "uint256[]",
          "name": "ids",
          "type": "uint256[]"
        },
        {
          "internalType": "uint256[]",
          "name": "amounts",
          "type": "uint256[]"
        },
        {
          "internalType": "bytes",
          "name": "data",
          "type": "bytes"
        }
      ],
      "name": "safeBatchTransferFrom",
      "outputs": [],
      "stateMutability": "nonpayable",
      "type": "function"
    },
    {
      "inputs": [
        {
          "internalType": "address",
          "name": "from",
          "type": "address"
        },
        {
          "internalType": "address",
          "name": "to",
          "type": "address"
        },
        {
          "internalType": "uint256",
          "name": "id",
          "type": "uint256"
        },
        {
          "internalType": "uint256",
          "name": "amount",
          "type": "uint256"
        },
        {
          "internalType": "bytes",
          "name": "data",
          "type": "bytes"
        }
      ],
      "name": "safeTransferFrom",
      "outputs": [],
      "stateMutability": "nonpayable",
      "type": "function"
    },
    {
      "inputs": [
        {
          "internalType": "address",
          "name": "operator",
          "type": "address"
        },
        {
          "internalType": "bool",
          "name": "approved",
          "type": "bool"
        }
      ],
      "name": "setApprovalForAll",
      "outputs": [],
      "stateMutability": "nonpayable",
      "type": "function"
    },
    {
      "inputs": [
        {
          "internalType": "string",
          "name": "_newURI",
          "type": "string"
        }
      ],
      "name": "setContractURI",
      "outputs": [],
      "stateMutability": "nonpayable",
      "type": "function"
    },
    {
      "inputs": [
        {
          "internalType": "uint256",
          "name": "_max",
          "type": "uint256"
        }
      ],
      "name": "setMaxWLMint",
      "outputs": [],
      "stateMutability": "nonpayable",
      "type": "function"
    },
    {
      "inputs": [
        {
          "internalType": "bool",
          "name": "_paused",
          "type": "bool"
        }
      ],
      "name": "setPaused",
      "outputs": [],
      "stateMutability": "nonpayable",
      "type": "function"
    },
    {
      "inputs": [
        {
          "internalType": "bool",
          "name": "_wlEnd",
          "type": "bool"
        }
      ],
      "name": "setWhitelistActive",
      "outputs": [],
      "stateMutability": "nonpayable",
      "type": "function"
    },
    {
      "inputs": [
        {
          "internalType": "bytes4",
          "name": "interfaceId",
          "type": "bytes4"
        }
      ],
      "name": "supportsInterface",
      "outputs": [
        {
          "internalType": "bool",
          "name": "",
          "type": "bool"
        }
      ],
      "stateMutability": "view",
      "type": "function"
    },
    {
      "inputs": [],
      "name": "symbol",
      "outputs": [
        {
          "internalType": "string",
          "name": "",
          "type": "string"
        }
      ],
      "stateMutability": "view",
      "type": "function"
    },
    {
      "inputs": [
        {
          "internalType": "uint256",
          "name": "",
          "type": "uint256"
        }
      ],
      "name": "tokenIdToExistingSupply",
      "outputs": [
        {
          "internalType": "uint256",
          "name": "",
          "type": "uint256"
        }
      ],
      "stateMutability": "view",
      "type": "function"
    },
    {
      "inputs": [
        {
          "internalType": "uint256",
          "name": "",
          "type": "uint256"
        }
      ],
      "name": "tokenIdToMaxSupplyPlusOne",
      "outputs": [
        {
          "internalType": "uint256",
          "name": "",
          "type": "uint256"
        }
      ],
      "stateMutability": "view",
      "type": "function"
    },
    {
      "inputs": [
        {
          "internalType": "uint256",
          "name": "_id",
          "type": "uint256"
        }
      ],
      "name": "totalSupply",
      "outputs": [
        {
          "internalType": "uint256",
          "name": "",
          "type": "uint256"
        }
      ],
      "stateMutability": "view",
      "type": "function"
    },
    {
      "inputs": [
        {
          "internalType": "address",
          "name": "newOwner",
          "type": "address"
        }
      ],
      "name": "transferOwnership",
      "outputs": [],
      "stateMutability": "nonpayable",
      "type": "function"
    },
    {
      "inputs": [
        {
          "internalType": "uint256",
          "name": "",
          "type": "uint256"
        }
      ],
      "name": "uri",
      "outputs": [
        {
          "internalType": "string",
          "name": "",
          "type": "string"
        }
      ],
      "stateMutability": "view",
      "type": "function"
    },
    {
      "inputs": [
        {
          "internalType": "uint256",
          "name": "_id",
          "type": "uint256"
        },
        {
          "internalType": "uint256",
          "name": "_amount",
          "type": "uint256"
        }
      ],
      "name": "whiteListedMint",
      "outputs": [],
      "stateMutability": "payable",
      "type": "function"
    },
    {
      "inputs": [
        {
          "internalType": "address[]",
          "name": "_users",
          "type": "address[]"
        }
      ],
      "name": "whitelistUsers",
      "outputs": [],
      "stateMutability": "nonpayable",
      "type": "function"
    },
    {
      "inputs": [
        {
          "internalType": "address",
          "name": "",
          "type": "address"
        }
      ],
      "name": "whitelistedAddresses",
      "outputs": [
        {
          "internalType": "bool",
          "name": "",
          "type": "bool"
        }
      ],
      "stateMutability": "view",
      "type": "function"
    },
    {
      "inputs": [
        {
          "internalType": "address",
          "name": "",
          "type": "address"
        }
      ],
      "name": "whitelistedPermit",
      "outputs": [
        {
          "internalType": "uint256",
          "name": "",
          "type": "uint256"
        }
      ],
      "stateMutability": "view",
      "type": "function"
    },
    {
      "inputs": [],
      "name": "withdraw",
      "outputs": [],
      "stateMutability": "payable",
      "type": "function"
    }
  ],
  "bytecode": "0x60c0604052600d60808190526c434f4e54494e454e54204b455960981b60a090815262000030916004919062000733565b506040805180820190915260058082526410d2d3919560da1b60209092019182526200005d918162000733565b50601460088190556009556032600a556011805461ffff191690553480156200008557600080fd5b506040518060800160405280605a815260200162003ac6605a9139620000ab8162000248565b50620000b73362000261565b6003805460ff60a01b191690556040805160808101909152605080825262003b2060208301398051620000f39160069160209091019062000733565b50600d60209081526127107f81955a0a11e65eac625c29e8882660bae4e165a75d72780094acae8ece9a29ee81905560016000527ffd54ff1ed53f34a900b24c5ba64f85761163b5d82d98a47b9bd80e45466993c5556200015d9062001a11620002b3821b17901c565b60408051600280825260608201835260009260208301908036833750506040805160028082526060820183529394506000939092509060208301908036833701905050905060005b60028110156200021c5780838281518110620001c557620001c5620007d9565b6020026020010181815250506001828281518110620001e857620001e8620007d9565b6020908102919091018101919091526000828152600c9091526040902060019055620002148162000805565b9050620001a5565b5062000240338383604051806020016040528060008152506200036660201b60201c565b505062000aca565b80516200025d90600290602084019062000733565b5050565b600380546001600160a01b038381166001600160a01b0319831681179093556040519116919082907f8be0079c531659141344cd1fd0a4f28419497f9722a3daafe3b4186f6b6457e090600090a35050565b620002c7600354600160a01b900460ff1690565b156200030d5760405162461bcd60e51b815260206004820152601060248201526f14185d5cd8589b194e881c185d5cd95960821b60448201526064015b60405180910390fd5b6003805460ff60a01b1916600160a01b1790557f62e78cea01bee320cd4e420270b5ea74000d11b0c9f74754ebdbfc544b05a258620003493390565b6040516001600160a01b03909116815260200160405180910390a1565b6001600160a01b038416620003c85760405162461bcd60e51b815260206004820152602160248201527f455243313135353a206d696e7420746f20746865207a65726f206164647265736044820152607360f81b606482015260840162000304565b81518351146200042c5760405162461bcd60e51b815260206004820152602860248201527f455243313135353a2069647320616e6420616d6f756e7473206c656e677468206044820152670dad2e6dac2e8c6d60c31b606482015260840162000304565b3360005b8451811015620004d4578381815181106200044f576200044f620007d9565b60200260200101516000808784815181106200046f576200046f620007d9565b602002602001015181526020019081526020016000206000886001600160a01b03166001600160a01b031681526020019081526020016000206000828254620004b9919062000821565b90915550819050620004cb8162000805565b91505062000430565b50846001600160a01b031660006001600160a01b0316826001600160a01b03167f4a39dc06d4c0dbc64b70af90fd698a233a518aa5d07e595d983b8c0526c8f7fb87876040516200052792919062000879565b60405180910390a462000540816000878787876200054f565b5050505050565b505050505050565b6200056e846001600160a01b03166200072460201b62001ab61760201c565b15620005475760405163bc197c8160e01b81526001600160a01b0385169063bc197c8190620005aa9089908990889088908890600401620008fb565b6020604051808303816000875af1925050508015620005e8575060408051601f3d908101601f19168201909252620005e5918101906200095f565b60015b620006a857620005f762000992565b806308c379a0036200063757506200060e620009ea565b806200061b575062000639565b8060405162461bcd60e51b815260040162000304919062000a79565b505b60405162461bcd60e51b815260206004820152603460248201527f455243313135353a207472616e7366657220746f206e6f6e204552433131353560448201527f526563656976657220696d706c656d656e746572000000000000000000000000606482015260840162000304565b6001600160e01b0319811663bc197c8160e01b146200071b5760405162461bcd60e51b815260206004820152602860248201527f455243313135353a204552433131353552656365697665722072656a656374656044820152676420746f6b656e7360c01b606482015260840162000304565b50505050505050565b6001600160a01b03163b151590565b828054620007419062000a8e565b90600052602060002090601f016020900481019282620007655760008555620007b0565b82601f106200078057805160ff1916838001178555620007b0565b82800160010185558215620007b0579182015b82811115620007b057825182559160200191906001019062000793565b50620007be929150620007c2565b5090565b5b80821115620007be5760008155600101620007c3565b634e487b7160e01b600052603260045260246000fd5b634e487b7160e01b600052601160045260246000fd5b6000600182016200081a576200081a620007ef565b5060010190565b60008219821115620008375762000837620007ef565b500190565b600081518084526020808501945080840160005b838110156200086e5781518752958201959082019060010162000850565b509495945050505050565b6040815260006200088e60408301856200083c565b8281036020840152620008a281856200083c565b95945050505050565b6000815180845260005b81811015620008d357602081850181015186830182015201620008b5565b81811115620008e6576000602083870101525b50601f01601f19169290920160200192915050565b6001600160a01b0386811682528516602082015260a06040820181905260009062000929908301866200083c565b82810360608401526200093d81866200083c565b90508281036080840152620009538185620008ab565b98975050505050505050565b6000602082840312156200097257600080fd5b81516001600160e01b0319811681146200098b57600080fd5b9392505050565b600060033d1115620009ac5760046000803e5060005160e01c5b90565b601f8201601f191681016001600160401b0381118282101715620009e357634e487b7160e01b600052604160045260246000fd5b6040525050565b600060443d1015620009f95790565b6040516003193d81016004833e81513d6001600160401b03808311602484018310171562000a2957505050505090565b828501915081518181111562000a425750505050505090565b843d870101602082850101111562000a5d5750505050505090565b62000a6e60208286010187620009af565b509095945050505050565b6020815260006200098b6020830184620008ab565b600181811c9082168062000aa357607f821691505b60208210810362000ac457634e487b7160e01b600052602260045260246000fd5b50919050565b612fec8062000ada6000396000f3fe6080604052600436106102455760003560e01c80638da5cb5b11610139578063d351cfdc116100b6578063e985e9c51161007a578063e985e9c51461069c578063edec5f27146106e5578063f0292a0314610705578063f242432a1461071b578063f2fde38b1461073b578063fe8c72eb1461075b57600080fd5b8063d351cfdc146105fa578063d901b2bc1461060d578063da8596ba1461062d578063db50c0571461065a578063e8a3d4851461068757600080fd5b8063a4968cc9116100fd578063a4968cc914610579578063b99eacd11461058f578063bd85b039146105a5578063c0e24d5e146105c5578063c3b754dc146105da57600080fd5b80638da5cb5b146104cf578063938e3d7b146104f757806395d89b41146105175780639fe88fa51461052c578063a22cb4651461055957600080fd5b80632eb2c2d6116101c75780634f02c4201161018b5780634f02c4201461043b578063573f5dae146104695780635c975abb14610488578063715018a6146104a75780637cab0092146104bc57600080fd5b80632eb2c2d6146103ac5780633867c76e146103cc578063388b9fe0146103e65780633ccfd60b146104065780634e1273f41461040e57600080fd5b80630c4680871161020e5780630c468087146103155780630e89341c1461032a57806316c38b3c1461034a5780631b2ef1ca1461036c5780631b385b9d1461037f57600080fd5b8062fdd58e1461024a5780630109c52e1461027d57806301ffc9a71461029357806306c933d8146102c357806306fdde03146102f3575b600080fd5b34801561025657600080fd5b5061026a61026536600461245d565b61077b565b6040519081526020015b60405180910390f35b34801561028957600080fd5b5061026a600a5481565b34801561029f57600080fd5b506102b36102ae36600461249d565b610812565b6040519015158152602001610274565b3480156102cf57600080fd5b506102b36102de3660046124c1565b600e6020526000908152604090205460ff1681565b3480156102ff57600080fd5b50610308610864565b6040516102749190612529565b34801561032157600080fd5b5061026a600281565b34801561033657600080fd5b5061030861034536600461253c565b6108f2565b34801561035657600080fd5b5061036a610365366004612565565b610986565b005b61036a61037a366004612580565b6109c9565b34801561038b57600080fd5b5061026a61039a3660046124c1565b60106020526000908152604090205481565b3480156103b857600080fd5b5061036a6103c73660046126ee565b610bbd565b3480156103d857600080fd5b5061026a655af3107a400081565b3480156103f257600080fd5b5061036a610401366004612798565b610c54565b61036a610d17565b34801561041a57600080fd5b5061042e6104293660046127cb565b610dee565b60405161027491906128d1565b34801561044757600080fd5b50600b546104569061ffff1681565b60405161ffff9091168152602001610274565b34801561047557600080fd5b506011546102b390610100900460ff1681565b34801561049457600080fd5b50600354600160a01b900460ff166102b3565b3480156104b357600080fd5b5061036a610f18565b61036a6104ca366004612580565b610f4e565b3480156104db57600080fd5b506003546040516001600160a01b039091168152602001610274565b34801561050357600080fd5b5061036a6105123660046128e4565b6112ed565b34801561052357600080fd5b50610308611323565b34801561053857600080fd5b5061026a61054736600461253c565b600d6020526000908152604090205481565b34801561056557600080fd5b5061036a610574366004612956565b611330565b34801561058557600080fd5b5061026a60095481565b34801561059b57600080fd5b5061026a60075481565b3480156105b157600080fd5b5061026a6105c036600461253c565b61133f565b3480156105d157600080fd5b50610308611374565b3480156105e657600080fd5b5061036a6105f5366004612565565b611381565b61036a6106083660046129d5565b6113d3565b34801561061957600080fd5b5061036a6106283660046129d5565b6115e0565b34801561063957600080fd5b5061026a61064836600461253c565b600c6020526000908152604090205481565b34801561066657600080fd5b5061026a6106753660046124c1565b600f6020526000908152604090205481565b34801561069357600080fd5b50610308611795565b3480156106a857600080fd5b506102b36106b7366004612a41565b6001600160a01b03918216600090815260016020908152604080832093909416825291909152205460ff1690565b3480156106f157600080fd5b5061036a610700366004612a6b565b611827565b34801561071157600080fd5b5061026a60085481565b34801561072757600080fd5b5061036a610736366004612aad565b6118c3565b34801561074757600080fd5b5061036a6107563660046124c1565b61194a565b34801561076757600080fd5b5061036a61077636600461253c565b6119e2565b60006001600160a01b0383166107ec5760405162461bcd60e51b815260206004820152602b60248201527f455243313135353a2062616c616e636520717565727920666f7220746865207a60448201526a65726f206164647265737360a81b60648201526084015b60405180910390fd5b506000908152602081815260408083206001600160a01b03949094168352929052205490565b60006001600160e01b03198216636cdb3d1360e11b148061084357506001600160e01b031982166303a24d0760e21b145b8061085e57506301ffc9a760e01b6001600160e01b03198316145b92915050565b6004805461087190612b12565b80601f016020809104026020016040519081016040528092919081815260200182805461089d90612b12565b80156108ea5780601f106108bf576101008083540402835291602001916108ea565b820191906000526020600020905b8154815290600101906020018083116108cd57829003601f168201915b505050505081565b60606002805461090190612b12565b80601f016020809104026020016040519081016040528092919081815260200182805461092d90612b12565b801561097a5780601f1061094f5761010080835404028352916020019161097a565b820191906000526020600020905b81548152906001019060200180831161095d57829003601f168201915b50505050509050919050565b6003546001600160a01b031633146109b05760405162461bcd60e51b81526004016107e390612b4c565b80156109c1576109be611a11565b50565b6109be611ac5565b600754600003610a1b5760405162461bcd60e51b815260206004820152601960248201527f77686974656c69737420686173206e6f7420737461727465640000000000000060448201526064016107e3565b4260075410610a6c5760405162461bcd60e51b815260206004820152601860248201527f77686974656c69737420686173206e6f742066696e697368000000000000000060448201526064016107e3565b60028210610a8c5760405162461bcd60e51b81526004016107e390612b81565b60085433600090815260106020526040902054610aaa908390612bbf565b1115610af85760405162461bcd60e51b815260206004820152601960248201527f4f6e6c79203230204e66747320627920616464726573732e200000000000000060448201526064016107e3565b6000828152600c6020908152604080832054600d90925290912054610b1d8383612bbf565b10610b3a5760405162461bcd60e51b81526004016107e390612bd7565b610b4a655af3107a400083612c00565b3414610b685760405162461bcd60e51b81526004016107e390612c1f565b333214610b875760405162461bcd60e51b81526004016107e390612c46565b6000838152600c602090815260408083209385019384905580519182019052908152610bb890339085908590611b49565b505050565b6001600160a01b038516331480610bd95750610bd985336106b7565b610c405760405162461bcd60e51b815260206004820152603260248201527f455243313135353a207472616e736665722063616c6c6572206973206e6f74206044820152711bdddb995c881b9bdc88185c1c1c9bdd995960721b60648201526084016107e3565b610c4d8585858585611c19565b5050505050565b6003546001600160a01b03163314610c7e5760405162461bcd60e51b81526004016107e390612b4c565b60028210610c9e5760405162461bcd60e51b81526004016107e390612b81565b6000828152600c6020908152604080832054600d90925290912054610cc38383612bbf565b10610ce05760405162461bcd60e51b81526004016107e390612bd7565b6000838152600c602090815260408083209385019384905580519182019052908152610d1190859085908590611b49565b50505050565b6003546001600160a01b03163314610d415760405162461bcd60e51b81526004016107e390612b4c565b6000610d556003546001600160a01b031690565b6001600160a01b03164760405160006040518083038185875af1925050503d8060008114610d9f576040519150601f19603f3d011682016040523d82523d6000602084013e610da4565b606091505b50509050806109be5760405162461bcd60e51b81526020600482015260166024820152750ccc2d2d8cac840e8de40eed2e8d0c8e4c2ee408aa8960531b60448201526064016107e3565b60608151835114610e535760405162461bcd60e51b815260206004820152602960248201527f455243313135353a206163636f756e747320616e6420696473206c656e677468604482015268040dad2e6dac2e8c6d60bb1b60648201526084016107e3565b6000835167ffffffffffffffff811115610e6f57610e6f6125a2565b604051908082528060200260200182016040528015610e98578160200160208202803683370190505b50905060005b8451811015610f1057610ee3858281518110610ebc57610ebc612c72565b6020026020010151858381518110610ed657610ed6612c72565b602002602001015161077b565b828281518110610ef557610ef5612c72565b6020908102919091010152610f0981612c88565b9050610e9e565b509392505050565b6003546001600160a01b03163314610f425760405162461bcd60e51b81526004016107e390612b4c565b610f4c6000611dad565b565b60115460ff1615610f915760405162461bcd60e51b815260206004820152600d60248201526c4e6f207265656e7472616e637960981b60448201526064016107e3565b6011805460ff191660011790819055610100900460ff16610ff45760405162461bcd60e51b815260206004820152601760248201527f77686974656c697374206973206e6f742061637469766500000000000000000060448201526064016107e3565b426007541161103b5760405162461bcd60e51b81526020600482015260136024820152720eed0d2e8cad8d2e6e840d2e640ccd2dcd2e6d606b1b60448201526064016107e3565b336000908152600e602052604090205460ff16151560011461109f5760405162461bcd60e51b815260206004820152601760248201527f596f752772206e6f742077686974656c6973746564202100000000000000000060448201526064016107e3565b600a54336000908152600f60205260409020546110bd908390612bbf565b11156111175760405162461bcd60e51b8152602060048201526024808201527f4f6e6c79203530204e6674732062792077686974656c6973746564206164647260448201526332b9b99760e11b60648201526084016107e3565b600282106111375760405162461bcd60e51b81526004016107e390612b81565b600b54611d4c9061114d90839061ffff16612bbf565b111561118f5760405162461bcd60e51b8152602060048201526011602482015270105b1b081d1bdad95b9cc81b5a5b9d1959607a1b60448201526064016107e3565b6000811180156111a157506009548111155b6111e35760405162461bcd60e51b8152602060048201526013602482015272125b9d985b1a59081b5a5b9d08185b5bdd5b9d606a1b60448201526064016107e3565b6000828152600c6020526040902054611202655af3107a400083612c00565b34146112205760405162461bcd60e51b81526004016107e390612c1f565b33321461123f5760405162461bcd60e51b81526004016107e390612c46565b6000838152600c60205260408120918301918290555b828110156112c257600b805461ffff1690600061127183612ca1565b825461ffff9182166101009390930a928302919092021990911617905550336000908152600f602052604081208054916112aa83612c88565b919050555080806112ba90612c88565b915050611255565b506112de33848460405180602001604052806000815250611b49565b50506011805460ff1916905550565b6003546001600160a01b031633146113175760405162461bcd60e51b81526004016107e390612b4c565b610bb8600683836123a8565b6005805461087190612b12565b61133b338383611dff565b5050565b6000600282106113615760405162461bcd60e51b81526004016107e390612b81565b506000908152600c602052604090205490565b6006805461087190612b12565b6003546001600160a01b031633146113ab5760405162461bcd60e51b81526004016107e390612b4c565b6113b642603c612bbf565b600755601180549115156101000261ff0019909216919091179055565b600354600160a01b900460ff16156114205760405162461bcd60e51b815260206004820152601060248201526f14185d5cd8589b194e881c185d5cd95960821b60448201526064016107e3565b600083815b818110156114635784848281811061143f5761143f612c72565b90506020020135836114519190612bbf565b925061145c81612c88565b9050611425565b50611474655af3107a400083612c00565b34146114925760405162461bcd60e51b81526004016107e390612c1f565b60005b8181101561155b5760008787838181106114b1576114b1612c72565b90506020020135905060008686848181106114ce576114ce612c72565b6000858152600c6020908152604080832054600d835292205492029390930135935090506114fc8383612bbf565b106115195760405162461bcd60e51b81526004016107e390612bd7565b3332146115385760405162461bcd60e51b81526004016107e390612c46565b6000928352600c60205260409092209101905561155481612c88565b9050611495565b506115d83387878080602002602001604051908101604052809392919081815260200183836020028082843760009201919091525050604080516020808b0282810182019093528a82529093508a925089918291850190849080828437600092018290525060408051602081019091529081529250611edf915050565b505050505050565b6003546001600160a01b0316331461160a5760405162461bcd60e51b81526004016107e390612b4c565b8260005b81811015611718576000600c600088888581811061162e5761162e612c72565b905060200201358152602001908152602001600020549050600087878481811061165a5761165a612c72565b905060200201359050600086868581811061167757611677612c72565b905060200201359050600282106116a05760405162461bcd60e51b81526004016107e390612b81565b6000828152600d60205260409020546116b98285612bbf565b106116d65760405162461bcd60e51b81526004016107e390612bd7565b3332146116f55760405162461bcd60e51b81526004016107e390612c46565b6000918252600c60205260409091209101905561171181612c88565b905061160e565b50610c4d3386868080602002602001604051908101604052809392919081815260200183836020028082843760009201919091525050604080516020808a02828101820190935289825290935089925088918291850190849080828437600092018290525060408051602081019091529081529250611edf915050565b6060600680546117a490612b12565b80601f01602080910402602001604051908101604052809291908181526020018280546117d090612b12565b801561181d5780601f106117f25761010080835404028352916020019161181d565b820191906000526020600020905b81548152906001019060200180831161180057829003601f168201915b5050505050905090565b6003546001600160a01b031633146118515760405162461bcd60e51b81526004016107e390612b4c565b60005b81811015610bb8576001600e600085858581811061187457611874612c72565b905060200201602081019061188991906124c1565b6001600160a01b031681526020810191909152604001600020805460ff1916911515919091179055806118bb81612c88565b915050611854565b6001600160a01b0385163314806118df57506118df85336106b7565b61193d5760405162461bcd60e51b815260206004820152602960248201527f455243313135353a2063616c6c6572206973206e6f74206f776e6572206e6f7260448201526808185c1c1c9bdd995960ba1b60648201526084016107e3565b610c4d858585858561202a565b6003546001600160a01b031633146119745760405162461bcd60e51b81526004016107e390612b4c565b6001600160a01b0381166119d95760405162461bcd60e51b815260206004820152602660248201527f4f776e61626c653a206e6577206f776e657220697320746865207a65726f206160448201526564647265737360d01b60648201526084016107e3565b6109be81611dad565b6003546001600160a01b03163314611a0c5760405162461bcd60e51b81526004016107e390612b4c565b600a55565b600354600160a01b900460ff1615611a5e5760405162461bcd60e51b815260206004820152601060248201526f14185d5cd8589b194e881c185d5cd95960821b60448201526064016107e3565b6003805460ff60a01b1916600160a01b1790557f62e78cea01bee320cd4e420270b5ea74000d11b0c9f74754ebdbfc544b05a258611a993390565b6040516001600160a01b03909116815260200160405180910390a1565b6001600160a01b03163b151590565b600354600160a01b900460ff16611b155760405162461bcd60e51b815260206004820152601460248201527314185d5cd8589b194e881b9bdd081c185d5cd95960621b60448201526064016107e3565b6003805460ff60a01b191690557f5db9ee0a495bf2e6ff9c91a7834c1ba4fdd244a5e8aa4e537bd38aeae4b073aa33611a99565b6001600160a01b038416611b6f5760405162461bcd60e51b81526004016107e390612cc2565b33611b8981600087611b8088612147565b610c4d88612147565b6000848152602081815260408083206001600160a01b038916845290915281208054859290611bb9908490612bbf565b909155505060408051858152602081018590526001600160a01b0380881692600092918516917fc3d58168c5ae7397731d063d5bbf3d657854427343f4c083240f7aacaa2d0f62910160405180910390a4610c4d81600087878787612192565b8151835114611c3a5760405162461bcd60e51b81526004016107e390612d03565b6001600160a01b038416611c605760405162461bcd60e51b81526004016107e390612d4b565b3360005b8451811015611d47576000858281518110611c8157611c81612c72565b602002602001015190506000858381518110611c9f57611c9f612c72565b602090810291909101810151600084815280835260408082206001600160a01b038e168352909352919091205490915081811015611cef5760405162461bcd60e51b81526004016107e390612d90565b6000838152602081815260408083206001600160a01b038e8116855292528083208585039055908b16825281208054849290611d2c908490612bbf565b9250508190555050505080611d4090612c88565b9050611c64565b50846001600160a01b0316866001600160a01b0316826001600160a01b03167f4a39dc06d4c0dbc64b70af90fd698a233a518aa5d07e595d983b8c0526c8f7fb8787604051611d97929190612dda565b60405180910390a46115d88187878787876122ed565b600380546001600160a01b038381166001600160a01b0319831681179093556040519116919082907f8be0079c531659141344cd1fd0a4f28419497f9722a3daafe3b4186f6b6457e090600090a35050565b816001600160a01b0316836001600160a01b031603611e725760405162461bcd60e51b815260206004820152602960248201527f455243313135353a2073657474696e6720617070726f76616c20737461747573604482015268103337b91039b2b63360b91b60648201526084016107e3565b6001600160a01b03838116600081815260016020908152604080832094871680845294825291829020805460ff191686151590811790915591519182527f17307eab39ab6107e8899845ad3d59bd9653f200f220920489ca2b5937696c31910160405180910390a3505050565b6001600160a01b038416611f055760405162461bcd60e51b81526004016107e390612cc2565b8151835114611f265760405162461bcd60e51b81526004016107e390612d03565b3360005b8451811015611fc257838181518110611f4557611f45612c72565b6020026020010151600080878481518110611f6257611f62612c72565b602002602001015181526020019081526020016000206000886001600160a01b03166001600160a01b031681526020019081526020016000206000828254611faa9190612bbf565b90915550819050611fba81612c88565b915050611f2a565b50846001600160a01b031660006001600160a01b0316826001600160a01b03167f4a39dc06d4c0dbc64b70af90fd698a233a518aa5d07e595d983b8c0526c8f7fb8787604051612013929190612dda565b60405180910390a4610c4d816000878787876122ed565b6001600160a01b0384166120505760405162461bcd60e51b81526004016107e390612d4b565b33612060818787611b8088612147565b6000848152602081815260408083206001600160a01b038a168452909152902054838110156120a15760405162461bcd60e51b81526004016107e390612d90565b6000858152602081815260408083206001600160a01b038b81168552925280832087850390559088168252812080548692906120de908490612bbf565b909155505060408051868152602081018690526001600160a01b03808916928a821692918616917fc3d58168c5ae7397731d063d5bbf3d657854427343f4c083240f7aacaa2d0f62910160405180910390a461213e828888888888612192565b50505050505050565b6040805160018082528183019092526060916000919060208083019080368337019050509050828160008151811061218157612181612c72565b602090810291909101015292915050565b6001600160a01b0384163b156115d85760405163f23a6e6160e01b81526001600160a01b0385169063f23a6e61906121d69089908990889088908890600401612e08565b6020604051808303816000875af1925050508015612211575060408051601f3d908101601f1916820190925261220e91810190612e4d565b60015b6122bd5761221d612e6a565b806308c379a0036122565750612231612e86565b8061223c5750612258565b8060405162461bcd60e51b81526004016107e39190612529565b505b60405162461bcd60e51b815260206004820152603460248201527f455243313135353a207472616e7366657220746f206e6f6e20455243313135356044820152732932b1b2b4bb32b91034b6b83632b6b2b73a32b960611b60648201526084016107e3565b6001600160e01b0319811663f23a6e6160e01b1461213e5760405162461bcd60e51b81526004016107e390612f10565b6001600160a01b0384163b156115d85760405163bc197c8160e01b81526001600160a01b0385169063bc197c81906123319089908990889088908890600401612f58565b6020604051808303816000875af192505050801561236c575060408051601f3d908101601f1916820190925261236991810190612e4d565b60015b6123785761221d612e6a565b6001600160e01b0319811663bc197c8160e01b1461213e5760405162461bcd60e51b81526004016107e390612f10565b8280546123b490612b12565b90600052602060002090601f0160209004810192826123d6576000855561241c565b82601f106123ef5782800160ff1982351617855561241c565b8280016001018555821561241c579182015b8281111561241c578235825591602001919060010190612401565b5061242892915061242c565b5090565b5b80821115612428576000815560010161242d565b80356001600160a01b038116811461245857600080fd5b919050565b6000806040838503121561247057600080fd5b61247983612441565b946020939093013593505050565b6001600160e01b0319811681146109be57600080fd5b6000602082840312156124af57600080fd5b81356124ba81612487565b9392505050565b6000602082840312156124d357600080fd5b6124ba82612441565b6000815180845260005b81811015612502576020818501810151868301820152016124e6565b81811115612514576000602083870101525b50601f01601f19169290920160200192915050565b6020815260006124ba60208301846124dc565b60006020828403121561254e57600080fd5b5035919050565b8035801515811461245857600080fd5b60006020828403121561257757600080fd5b6124ba82612555565b6000806040838503121561259357600080fd5b50508035926020909101359150565b634e487b7160e01b600052604160045260246000fd5b601f8201601f1916810167ffffffffffffffff811182821017156125de576125de6125a2565b6040525050565b600067ffffffffffffffff8211156125ff576125ff6125a2565b5060051b60200190565b600082601f83011261261a57600080fd5b81356020612627826125e5565b60405161263482826125b8565b83815260059390931b850182019282810191508684111561265457600080fd5b8286015b8481101561266f5780358352918301918301612658565b509695505050505050565b600082601f83011261268b57600080fd5b813567ffffffffffffffff8111156126a5576126a56125a2565b6040516126bc601f8301601f1916602001826125b8565b8181528460208386010111156126d157600080fd5b816020850160208301376000918101602001919091529392505050565b600080600080600060a0868803121561270657600080fd5b61270f86612441565b945061271d60208701612441565b9350604086013567ffffffffffffffff8082111561273a57600080fd5b61274689838a01612609565b9450606088013591508082111561275c57600080fd5b61276889838a01612609565b9350608088013591508082111561277e57600080fd5b5061278b8882890161267a565b9150509295509295909350565b6000806000606084860312156127ad57600080fd5b6127b684612441565b95602085013595506040909401359392505050565b600080604083850312156127de57600080fd5b823567ffffffffffffffff808211156127f657600080fd5b818501915085601f83011261280a57600080fd5b81356020612817826125e5565b60405161282482826125b8565b83815260059390931b850182019282810191508984111561284457600080fd5b948201945b838610156128695761285a86612441565b82529482019490820190612849565b9650508601359250508082111561287f57600080fd5b5061288c85828601612609565b9150509250929050565b600081518084526020808501945080840160005b838110156128c6578151875295820195908201906001016128aa565b509495945050505050565b6020815260006124ba6020830184612896565b600080602083850312156128f757600080fd5b823567ffffffffffffffff8082111561290f57600080fd5b818501915085601f83011261292357600080fd5b81358181111561293257600080fd5b86602082850101111561294457600080fd5b60209290920196919550909350505050565b6000806040838503121561296957600080fd5b61297283612441565b915061298060208401612555565b90509250929050565b60008083601f84011261299b57600080fd5b50813567ffffffffffffffff8111156129b357600080fd5b6020830191508360208260051b85010111156129ce57600080fd5b9250929050565b600080600080604085870312156129eb57600080fd5b843567ffffffffffffffff80821115612a0357600080fd5b612a0f88838901612989565b90965094506020870135915080821115612a2857600080fd5b50612a3587828801612989565b95989497509550505050565b60008060408385031215612a5457600080fd5b612a5d83612441565b915061298060208401612441565b60008060208385031215612a7e57600080fd5b823567ffffffffffffffff811115612a9557600080fd5b612aa185828601612989565b90969095509350505050565b600080600080600060a08688031215612ac557600080fd5b612ace86612441565b9450612adc60208701612441565b93506040860135925060608601359150608086013567ffffffffffffffff811115612b0657600080fd5b61278b8882890161267a565b600181811c90821680612b2657607f821691505b602082108103612b4657634e487b7160e01b600052602260045260246000fd5b50919050565b6020808252818101527f4f776e61626c653a2063616c6c6572206973206e6f7420746865206f776e6572604082015260600190565b6020808252600e908201526d34b21036bab9ba103132901e101960911b604082015260600190565b634e487b7160e01b600052601160045260246000fd5b60008219821115612bd257612bd2612ba9565b500190565b6020808252600f908201526e1cdd5c1c1b1e48195e18d959591959608a1b604082015260600190565b6000816000190483118215151615612c1a57612c1a612ba9565b500290565b6020808252600d908201526c0d2dcc6dee4e4cac6e8408aa89609b1b604082015260600190565b6020808252601290820152716e6f20736d61727420636f6e74726163747360701b604082015260600190565b634e487b7160e01b600052603260045260246000fd5b600060018201612c9a57612c9a612ba9565b5060010190565b600061ffff808316818103612cb857612cb8612ba9565b6001019392505050565b60208082526021908201527f455243313135353a206d696e7420746f20746865207a65726f206164647265736040820152607360f81b606082015260800190565b60208082526028908201527f455243313135353a2069647320616e6420616d6f756e7473206c656e677468206040820152670dad2e6dac2e8c6d60c31b606082015260800190565b60208082526025908201527f455243313135353a207472616e7366657220746f20746865207a65726f206164604082015264647265737360d81b606082015260800190565b6020808252602a908201527f455243313135353a20696e73756666696369656e742062616c616e636520666f60408201526939103a3930b739b332b960b11b606082015260800190565b604081526000612ded6040830185612896565b8281036020840152612dff8185612896565b95945050505050565b6001600160a01b03868116825285166020820152604081018490526060810183905260a060808201819052600090612e42908301846124dc565b979650505050505050565b600060208284031215612e5f57600080fd5b81516124ba81612487565b600060033d1115612e835760046000803e5060005160e01c5b90565b600060443d1015612e945790565b6040516003193d81016004833e81513d67ffffffffffffffff8160248401118184111715612ec457505050505090565b8285019150815181811115612edc5750505050505090565b843d8701016020828501011115612ef65750505050505090565b612f05602082860101876125b8565b509095945050505050565b60208082526028908201527f455243313135353a204552433131353552656365697665722072656a656374656040820152676420746f6b656e7360c01b606082015260800190565b6001600160a01b0386811682528516602082015260a060408201819052600090612f8490830186612896565b8281036060840152612f968186612896565b90508281036080840152612faa81856124dc565b9897505050505050505056fea26469706673582212205d8b6b546ce541ae2af2dddc71695588882af7a35f65f41581c5ff6c3016543264736f6c634300080e003368747470733a2f2f676174657761792e70696e6174612e636c6f75642f697066732f516d646356414e5732793553376f356e6864325a6665596d534b7144354d36793939695236634a63786d5733314c2f7b69647d2e6a736f6e68747470733a2f2f676174657761792e70696e6174612e636c6f75642f697066732f516d5269344d387744787677694d5737525663623731787961546465665a754b3356446a7554694155775946614e",
  "linkReferences": {},
  "deployedLinkReferences": {}
}